:020000040000FA
:10000000C0040020650100005B1300004D130000D8
:1000100000000000000000000000000000000000E0
:100020000000000000000000000000000D140000AF
:100030000000000000000000D9130000291B000090
:10004000CD080000CF080000D1080000D308000050
:10005000CB08000000000000F11B0000F31B0000B3
:1000600057130000000000000B1400000000000007
:100070005113000000000000E91B0000EB1B000012
:100080005513000000000000ED1B0000EF1B0000F6
:1000900000000000D7130000F71B000053130000FE
:1000A000A303000059130000F51B0000000000002E
:1000B000A5030000D5130000091400000508000086
:1000C00000F002F800F03EF80CA030C80838241800
:1000D0002D18A246671EAB4654465D46AC4201D180
:1000E00000F030F87E460F3E0FCCB6460126334274
:1000F00000D0FB1AA246AB46334318477C270000CA
:100100009C270000103A02D378C878C1FAD8520769
:1001100001D330C830C101D504680C6070470000BD
:100120000023002400250026103A01D378C1FBD813
:10013000520700D330C100D50B6070471FB51FBDFB
:1001400010B510BD00F0FAF81146FFF7F7FF02F006
:1001500041FB00F012F903B4FFF7F2FF03BC00F01B
:1001600019F900000748804707480047FEE7FEE707
:10017000FEE7FEE7FEE7FEE704480549054A064BB1
:1001800070470000A91B0000C1000000C000002053
:10019000C0040020C0020020C002002001E004C012
:1001A000091F0429FBD28B0701D50280801CC907D7
:1001B00000D00270704700290BD0C30702D0027034
:1001C000401C491E022904D3830702D50280801CEB
:1001D000891EE3E70022EEE70022DFE700220309A1
:1001E0008B422CD3030A8B4211D300239C464EE052
:1001F00003460B433CD4002243088B4231D303090E
:100200008B421CD3030A8B4201D394463FE0C309BF
:100210008B4201D3CB01C01A524183098B4201D3D7
:100220008B01C01A524143098B4201D34B01C01AC2
:10023000524103098B4201D30B01C01A5241C3083A
:100240008B4201D3CB00C01A524183088B4201D3A9
:100250008B00C01A524143088B4201D34B00C01A95
:100260005241411A00D201465241104670475DE0AA
:10027000CA0F00D04942031000D34042534000222D
:100280009C4603098B422DD3030A8B4212D3FC22D6
:10029000890112BA030A8B420CD3890192118B4255
:1002A00008D3890192118B4204D389013AD092116B
:1002B00000E08909C3098B4201D3CB01C01A524126
:1002C00083098B4201D38B01C01A524143098B42EF
:1002D00001D34B01C01A524103098B4201D30B01D8
:1002E000C01A5241C3088B4201D3CB00C01A5241FD
:1002F00083088B4201D38B00C01A5241D9D24308E4
:100300008B4201D34B00C01A5241411A00D2014620
:10031000634652415B10104601D34042002B00D58A
:100320004942704763465B1000D3404201B500204C
:10033000C046C04602BD704770477047754600F022
:1003400025F8AE46050069465346C008C0008546FC
:1003500018B020B5FFF710FF60BC00274908B6466B
:100360000026C0C5C0C5C0C5C0C5C0C5C0C5C0C5C4
:10037000C0C5403D49008D46704710B50446C04693
:10038000C0462046FFF7E7FE10BD0000004870475A
:100390006000002001491820ABBEFEE726000200E5
:1003A000704770477047000000B58DB03421684633
:1003B000FFF712FF0C200090012001900020039015
:1003C00004900790089002906946054800F098FA5A
:1003D00008200349C8620420C8620DB000BD0000B7
:1003E000001C024000B58DB034216846FFF7F4FED2
:1003F000302000900120019000200390049007908D
:10040000089002906946054800F07AFA20200349D6
:10041000C8621020C8620DB000BD0000001C024080
:1004200000200822174B1A631A46126804239A43C5
:10043000144B1A601A46D26B30239A43114BDA637D
:10044000082111E04206100E08220E4BDA621A460D
:10045000D26804231A40002A01D0421CD0B20822DC
:10046000084B1A634A1ED1B20029EBDC054A126818
:1004700004231A43034B1A600422DA620822DA6268
:1004800070470000001C024000202022144B1A6319
:100490001A46126810239A43114B1A60082111E082
:1004A0004206100E20220E4BDA621A46D268102342
:1004B0001A40002A01D0421CD0B22022084B1A63F5
:1004C0004A1ED1B20029EBDC054A126810231A43F8
:1004D000034B1A601022DA622022DA6270470000B1
:1004E000001C024010B5044605480078012803D1DD
:1004F000204600F007F810BD204600F02FF8FAE77C
:100500000D00002070B5044600BF00F053F87820BD
:1005100000F07CF800F014F9002802D100F05EF839
:10052000F3E7204600F072F800F00AF9002802D143
:1005300000F054F8E9E700F03DF8792000F066F8A3
:1005400000F0FEF8002802D100F048F8DDE7FFF7E0
:1005500067FF054600F042F8284670BD70B50446B6
:1005600000BF00F031F8782000F06CF800F01CF9C2
:10057000002802D100F03EF8F3E7204600F062F8D0
:1005800000F012F9002802D100F034F8E9E700F099
:100590001BF8792000F056F800F006F9002802D187
:1005A00000F028F8DDE7FFF76FFF054600F022F8BE
:1005B000284670BD04200349C8620820C862042090
:1005C00008637047001C024010200349C8622020C5
:1005D000C862102008637047001C024008200449CC
:1005E0000863042008630820C8620420C8627047BA
:1005F000001C0240202004490863102008632020CA
:10060000C8621020C8627047001C0240082114E034
:1006100008220B4B1A6380220240002A04D00422D5
:10062000DA620822DA6204E00422054B1A63082227
:10063000DA624206100E4A1ED1B20029E8DC704789
:10064000001C0240082114E020220B4B1A63802278
:100650000240002A04D01022DA622022DA6204E08A
:100660001022054B1A632022DA624206100E4A1E3F
:10067000D1B20029E8DC7047001C024070B5044686
:100680000D4607480078012804D12946204600F08D
:1006900009F803E02946204600F02BF870BD000061
:1006A0000D00002070B505460C4600BFFFF782FF25
:1006B0007820FFF7ABFF00F043F8002802D1FFF7E6
:1006C0008DFFF3E72846FFF7A1FF00F039F8002877
:1006D00002D1FFF783FFE9E72046FFF797FF00F01D
:1006E0002FF8002802D1FFF779FFDFE7FFF776FF49
:1006F00070BD70B505460C4600BFFFF765FF78205A
:10070000FFF7A0FF00F050F8002802D1FFF772FFBA
:10071000F3E72846FFF796FF00F046F8002802D1DD
:10072000FFF768FFE9E72046FFF78CFF00F03CF891
:10073000002802D1FFF75EFFDFE7FFF75BFF70BD28
:1007400008201849086308460068042188431549B1
:1007500008600846C06B302188431249C8630820EE
:10076000C8620846C0680421084000280CD0082050
:100770000C4908630420C862084600680421084345
:1007800008490860002070470820064908630420D3
:10079000C862084600680421084302490860012035
:1007A000F1E70000001C02402020154908630846BC
:1007B000006810218843124908602020C86208465A
:1007C000C0681021084000280CD020200C49086384
:1007D0001020C862084600681021084308490860D4
:1007E000002070472020064908631020C862084690
:1007F000006810210843024908600120F1E7000069
:10080000001C02407047000010B52B480078C0075C
:10081000C00F002821D029480068401C27490860E3
:100820000A281DD9002008602348007840084000AD
:100830002149087001202249087000F091FE032030
:1008400001F0FCF800F0A2FF0446A00024186408A0
:10085000642C01D200F054FE02E000201749086029
:10086000154800788007C00F002821D0154800687F
:10087000401C144908600A281DD9002008600E4851
:100880000078022188430C49087002200C49087046
:1008900000F066FE032001F0D1F800F077FF044677
:1008A000A00024186408642C01D200F029FE02E0A4
:1008B00000200449086010BD120000202000002024
:1008C0000D000020240000207047704770477047DB
:1008D0007047704770B5044600F050F9064625464B
:1008E000681C002802D0054800782D1800BF00F0D1
:1008F00045F9801BA842FAD370BD00000C0000200F
:10090000F8B50B460024002500950022002131E1B6
:1009100001258D402C461D6825400095009DA5426F
:100920007ED1056901268E40B5430561056A012621
:100930008E40B5430562456A01268E40B543456247
:10094000856A01268E40B5438562856C8F000F262F
:10095000BE40B5438564056801268E40B5430560F9
:10096000456BFF268E40B5434563056C01268E40DE
:1009700035430564C56B4F000326BE40B543C563D0
:100980005D68022D0DD1826C4D07EE0E0F25B5402E
:100990001646AE4332464E07F60E1D6BB5402A434F
:1009A00082645D68042D08D1826C4D07EE0E0F2520
:1009B000B5401646AE43324682645D68032D0DD1C4
:1009C000826C4D07EE0E0F25B5401646AE433246FB
:1009D0004D07EE0E0F25B5402A4382645D68002D59
:1009E00008D102684E07760F0125B5401646AE4382
:1009F000324602605D68012D0CD102684E07760F09
:100A0000B5401646AE4332464E07760F0125B54037
:100A10002A4302601D69012D14D1856B9E6900E097
:100A20009CE035438563426B4E07760F0125B54048
:100A30001646AE4332464E07760F1D69B5402A432F
:100A4000426322E05D69012D16D1426B4E07760F9D
:100A5000B5401646AE4332464263826B10261546B9
:100A6000B5432A468263426B36011546B5432A4692
:100A70005D692A43426308E0426B4E07760F012509
:100A8000B5401646AE4332464263456BEDB2002D8B
:100A900005D0856B1E6936013543856303E0856BA0
:100AA0001026B5438563C26B4E000325B54016463C
:100AB000AE4332464E009D68B5402A43C263426849
:100AC00003258D401646AE433246DD688D402A43ED
:100AD0004260026C01258D401646AE433246DD6908
:100AE0008D402A430264426C01258D401646AE4378
:100AF00032461D6A8D402A434264012636075D68EE
:100B00003540B54235D1026901258D401646AE43C8
:100B100032465D6A8D402A430261026A01258D409A
:100B20001646AE4332469D6A8D402A430262DD6A14
:100B3000002D02D0DD6A012D11D1826A01258D4080
:100B40001646AE4332468262426A01258D40164601
:100B5000AE433246DD6A8D402A43426209E0826A32
:100B600001258D401646AE43324601258D402A436D
:100B70008262491C082900D2CAE6F8BD0148006813
:100B8000704700000400002003480068034909780A
:100B90004018014908607047040000200C00002044
:100BA00010B5032000F004F800F02CF8002010BD70
:100BB00070B50446104801787D20C000FFF70EFB99
:100BC000064631460D480068FFF708FB054600F071
:100BD000A1FB002801D0012070BD042C07D22146C2
:100BE0000020C04300F00FF80548046001E0012038
:100BF000F2E70020F0E700000C00002000000020D9
:100C000008000020704770B504460D46294620466E
:100C100000F0A4FB70BD000070B504460025022161
:100C200020680840022814D10421206808400428C4
:100C300007D169484068000A0002E1680843664934
:100C4000486065480068000A0002A16808436249DC
:100C500008602078C007C00F002853D060680128C2
:100C600009D15D48806A012109030840000B002872
:100C700023D1012070BD6068022808D15648C06A9F
:100C8000402108408009002817D10120F2E7606860
:100C9000042809D15048006B012109030840000BCA
:100CA00000280AD10120E5E74B48406B402108406D
:100CB0008009002801D10120DCE700BF47484649F0
:100CC00040310862464960680843434948624348E6
:100CD000401E41494031086200BFFFF74FFF054603
:100CE000606801280FD107E0FFF748FF401B3D492E
:100CF000884201D90320BDE73748406A0007000F4A
:100D00000128F1D137E0606802280FD107E0FFF732
:100D100035FF401B3349884201D90320AAE72E48FA
:100D2000406A0007000F0228F1D124E0606804281F
:100D30000FD107E0FFF722FF401B2A49884201D963
:100D4000032097E72448406A0007000F0428F1D1E8
:100D500011E0606808280ED107E0FFF70FFF401B85
:100D60002049884201D9032084E71B48406A0007D4
:100D7000000F0828F1D1042120680840042807D179
:100D800015484068000A0002E168084312494860BB
:100D900011480068C0B200280BD000F029F84608BE
:100DA0000D480068C1B23046FFF718FA0E490860D6
:100DB00003E000F01DF80C4908606068042802D0C8
:100DC0006068082802D10A20084908700320FFF74C
:100DD000EFFE00204EE70000000002409966AA5591
:100DE0000000695A88130000000000200C00002059
:100DF00000210020244A516A0A07120F012A04D058
:100E0000022A36D0042A39D135E01F4A926A1205E7
:100E1000120D1E4B1B889A4201D11D4828E01A4A28
:100E2000926A1205120D194B5B889A4201D119483A
:100E30001EE0154A926A1205120D144B9B889A42C5
:100E400001D1154814E0104A926A1205120D0F4B99
:100E5000DB889A4201D111480AE00B4A926A1205D6
:100E6000120D0A4B1B899A4201D10D4800E00C4833
:100E700007E00A4805E04B20400202E00120C003E1
:100E800000BF00BF7047000000000240A000001833
:100E900000366E01408651010024F40000127A00F1
:100EA00000093D0070B5044600252078C007C00F3A
:100EB00000282DD0FC48406A0007000F012828D1E7
:100EC000F948806A012109030840000B002804D179
:100ED0006068012801D0012070BD00BFF348F249CD
:100EE0004031086207214902A068084088420AD0C0
:100EF000A0680840002806D020890005000DEC49B4
:100F00004018E9498862E948401EE74940310862D3
:100F100068E0606800283FD000BFE448E249403103
:100F2000086207214902A068084088420AD0A068E8
:100F30000840002806D020890005000DDC49401833
:100F4000D9498862D948401ED7494031086200BF5C
:100F500000BF401C0862D448006AD549491C0843B8
:100F6000D1490862D148401ECF494031086200BFD4
:100F7000FFF704FE054606E0FFF700FE401B0228CF
:100F800001D90320A8E7C848806A01210903084065
:100F9000000B0028F0D025E000BFC448C249403112
:100FA0000862C148006A40084000C1490843BE4980
:100FB0000862BE48401EBC494031086200BFFFF7CE
:100FC000DDFD054606E0FFF7D9FD401B022801D9EB
:100FD000032081E7B448806A012109030840000B1F
:100FE0000028F0D108212068084008287DD1206918
:100FF000002854D000BFAD49AB4A403211620020F6
:10100000A949096BC805C00D61690843A849014396
:10101000A54A1163A549491EA34A4032116200BF87
:1010200000BF491C116200209F49096B03229202F4
:1010300011400846218BC905C90D08439C4901434D
:10104000994A11639949491E974A4032116200BF7B
:1010500000BF481C114608629348006A9449091D64
:101060000843914908629148401E1146086200BF3A
:10107000FFF784FD054606E0FFF780FD401B0228D0
:1010800001D9032028E78848006B012109030840A3
:10109000000B0028F0D0012000F0A0F925E000BFEF
:1010A00082488149403108627F48006A04218843B0
:1010B0007F4908437C4908627C48401E7A49403198
:1010C000086200BFFFF75AFD054606E0FFF756FD30
:1010D000401B022801D90320FEE67348006B012162
:1010E00009030840000B0028F0D1022120680840C5
:1010F000022876D16C48406A0007000F02280BD105
:101100006948C06A402108408009002869D0E06829
:10111000002866D10120DFE600BF64486249403103
:101120000862E068022807D15F48006A6049891CAC
:1011300008435D49086226E0E068002808D15A4863
:10114000006A022188435A490843574908621AE055
:10115000E068202807D15448006A554920310843E7
:10116000514908620FE05048006A02218843504903
:1011700008434D4908620846006A202188434C49CB
:101180000843494908624948401E474940310862BE
:1011900000BFE068002812D0FFF7F0FC054606E02B
:1011A000FFF7ECFC401B642801D9032094E63E487D
:1011B000C06A4021084080090028F1D011E0FFF703
:1011C000DDFC054606E0FFF7D9FC401B642801D989
:1011D000032081E63448C06A402108408009002885
:1011E000F1D104212068084004285CD100BF2F48B9
:1011F0002D49403108628915E069884206D12A48A4
:10120000406B2C490843284948633FE0E0690028C7
:1012100017D12548406B012189028843244908439E
:10122000214948630846406B891588432049084393
:101230001D4948630846406B1F4908431A494863E3
:1012400024E001214902E06988420ED11648406B32
:101250004910884316490843134948630846406BC0
:10126000164908431049486310E00F48406BFF21BE
:10127000013188430E4908430B4948630846406BD7
:10128000491588430A490843074948630748401EEF
:1012900005494031086200BFE069002820D0FFF70F
:1012A0006DFC054614E02EE0000002409966AA5548
:1012B0000000695A0001695A0004695A0002695A1B
:1012C000FFF75CFC401B1149884201D9032003E66B
:1012D0000F48406B4021084080090028F0D012E000
:1012E000FFF74CFC054607E0FFF748FC401B0749A9
:1012F000884201D90320EFE50548406B40210840B2
:1013000080090028F0D10020E6E5000088130000E5
:101310000000024070B504462546681E094988420F
:1013200001D901200CE0681E074948610321081F0C
:1013300000F014F8002004498861072008610020AB
:1013400070BD0000FFFFFF0000E000E000BFFEE70F
:1013500070477047704770477047704710B5002856
:1013600019DA1A4A03071B0F083B9B089B00D25847
:101370008307DC0EFF23A3409A438B071B0E8407D1
:10138000E40EA3401A43114B0407240F083CA408A1
:10139000A4001A5118E00E4A03231B02D218830836
:1013A0009B00D2588307DC0EFF23A3409A438B0790
:1013B0001B0E8407E40EA3401A43054B03242402AA
:1013C0001B198408A4001A5110BD00001CED00E098
:1013D00000E100E0704770477047000038B50446F0
:1013E00008490968C8087D21C900FEF7F7FE604377
:1013F000009000BF00BF0098411E00910028F9D165
:1014000038BD0000000000207047704770470000A2
:101410001CB5044619480078012803D11848807A81
:10142000019002E01648807D0190BD20FFF75AF838
:101430000090002C09D1684600788006810F68462C
:1014400000798006800F814216D000F089F8694645
:10145000087830218843694609798906890F09018E
:10146000302211400843009068460178BD20FFF704
:1014700005F96420FFF72EFA1CBD00000D000020C6
:101480004400002010B50446204600F091F90028E1
:1014900001D000F01FFB10BD08B50820FFF722F8AF
:1014A0000090694608780009072804D0684600784B
:1014B0000009082801D1012008BD0020FCE708B57B
:1014C0000820FFF70FF80090694608780009062801
:1014D00004D0684600780009082801D1012008BD21
:1014E0000020FCE708B50820FEF7FCFF00906946E5
:1014F000087800090B2801D1012008BD0020FCE775
:1015000008B500F02DF87620FEF7ECFF0090684655
:10151000007841084900491C009168460078022182
:101520008843811C0091684601787620FFF7A6F871
:101530006420FFF7CFF96846007841084900009120
:10154000684600780221884300906846017876203A
:10155000FFF794F819204001FFF7BCF908BD00001F
:1015600010B516480078012813D11548007E0028D0
:1015700022D101201249087620211220FFF77EF89F
:1015800040211220FFF77AF880211220FFF776F829
:1015900012E00B48407E00280ED101200849487611
:1015A00020211220FFF76AF840211220FFF766F889
:1015B00080211220FFF762F810BD00000D0000200E
:1015C000440000201CB5044619480078012803D1C6
:1015D0001848C079019002E01648C07C0190B920FB
:1015E000FEF780FF0090002C09D168460078400784
:1015F000C10F684600794007C00F814216D0FFF73F
:10160000AFFF69460878042188436946097949078C
:10161000C90F8900042211400843009068460178F0
:10162000B920FFF72BF86420FFF754F91CBD000028
:101630000D000020440000201CB504461948007825
:10164000012803D11848007A019002E01648007D75
:101650000190BA20FEF746FF0090002C09D16846A1
:1016600000780007810F684600790007800F8142EB
:1016700016D0FFF775FF694608780C218843694644
:1016800009790907890F89000C221140084300904D
:1016900068460178BA20FEF7F1FF6420FFF71AF9D7
:1016A0001CBD00000D000020440000201CB50446B5
:1016B0001E480078012803D11D480078019002E0FF
:1016C0001B48007B0190A620FEF70CFF0090002C29
:1016D00009D1684600788107890F6846007980073C
:1016E000800F814220D0002C0CD0694608788021E0
:1016F0008843694609790906C90FC901802211404A
:10170000084300906846007881088900684600799F
:101710008007800F0143009168460178A620FEF7FC
:10172000ADFF6420FFF7D6F81CBD00000D000020BF
:10173000440000201CB5044612480078012803D15B
:1017400011484079019002E00F48407C0190B72099
:10175000FEF7C8FE0090002C04D16846017800799D
:1017600081420ED0684601790091FFF7F9FE684684
:101770000178B720FEF782FF6420FFF7ABF800F096
:10178000A9F91CBD0D0000204400002070B53B20CD
:10179000FEF7A8FE044624013C20FEF7A3FE054602
:1017A0006419204670BD10B53B20FEF79BFE10BDAE
:1017B0001CB5044616480078012803D115488078E6
:1017C000019002E01348807B0190B420FEF78AFE6E
:1017D0000090002C09D1684600784106490E684601
:1017E00000794006400E814210D0FFF7B9FE6846EE
:1017F00000794106490E009168460178B420FEF751
:101800003DFF6420FFF766F801201CBD0020FCE7C7
:101810000D000020440000201CB504461948007843
:10182000012803D11848807A019002E01648807D93
:101830000190BD20FEF756FE0090002C09D16846AD
:1018400000784006C10F684600794006C00F81420B
:1018500016D0FFF785FE694608784021884369461F
:1018600009794906C90F89014022114008430090B7
:1018700068460178BD20FEF701FF6420FFF72AF8D3
:101880001CBD00000D000020440000201CB50446D3
:1018900018480078012803D117484078019002E0E9
:1018A0001548407B0190AB20FEF71CFE0090002CF9
:1018B00009D1684600780007810F68460079000763
:1018C000800F814214D0694608780C21884369460C
:1018D00009790907890F89000C22114008430090FB
:1018E00068460178AB20FEF7C9FE6420FEF7F2FFE0
:1018F0001CBD00000D0000204400002030B589B060
:10190000044600254B480078012803D14A48C07A94
:10191000089002E04848C07D0890BE20FEF7E2FD36
:101920000790002C05D16846017F08A80078814205
:101930000AD00125FFF714FE08A801780791684630
:10194000017FBE20FEF79AFE3A480078012803D1B5
:101950003948C078069002E03748C07B0690B52031
:10196000FEF7C0FD0590002C04D16846017D007E85
:10197000814209D00125FFF7F3FD6846017E0591FC
:10198000017DB520FEF77AFE2A480078012803D1B0
:1019900029480079049002E02748007C0490B62092
:1019A000FEF7A0FD0390002C04D16846017B007C6B
:1019B000814209D00125FFF7D3FD6846017C0391E0
:1019C000017BB620FEF75AFE1A480078012803D1A1
:1019D00019488079029002E01748807C0290B82074
:1019E000FEF780FD0190002C09D1684600790007C0
:1019F000C10F6846007A0007C00F814214D001254C
:101A0000FFF7AEFD69460879082188436946097ADF
:101A10000907C90FC9000822114008430190684610
:101A20000179B820FEF72AFE002D01D000F052F80F
:101A300009B030BD0D0000204400002038B5044638
:101A40003A20FEF74FFD0090E1B200916846017820
:101A50003A20FEF713FE6420FEF73CFF38BD00007D
:101A60001CB5044619480078012803D11848407A6B
:101A7000019002E01648407D0190BC20FEF732FD47
:101A80000090002C09D1684600780007C10F684615
:101A900000790007C00F814216D0FFF761FD69464B
:101AA000087808218843694609790907C90FC900E0
:101AB000082211400843009068460178BC20FEF7D8
:101AC000DDFD6420FEF706FF1CBD00000D000020B8
:101AD0004400002008B57320FEF704FD009068461E
:101AE000007880218843411800916846017873206E
:101AF000FEF7C4FD6420FEF7EDFE08BD034608684E
:101B0000002800D10B600868904203D90868801A49
:101B1000086001E0002008600868C01808600868D4
:101B20008003000C7047000010B5FFF72DF801206E
:101B30000749087108460068401C0860FF212D31E4
:101B4000884204D30020024908600120487110BD7A
:101B50003800002000B58DB0202105A8FEF73CFB21
:101B600000200190029003900490012005900690BF
:101B70000C480089079005A8FFF794F9002801D0C8
:101B8000FEF7A2FE072001900120029000200390A2
:101B9000049001A8FFF740F8002801D0FEF794FE5A
:101BA0000DB000BDA00000180B480C4908620C489D
:101BB0000A49403908620848401E08490862002066
:101BC0000649403908604860881588600020C86070
:101BD00008610449886070479966AA554000024030
:101BE0000100695A00ED00E0704770477047704788
:101BF000704770477047704730B47446641E25784C
:101C0000641CAB4204D3635D5B00E31830BC18472F
:101C10001D46F8E710B5FE480078FE49097888426D
:101C200004D0FC480078FA49087000E010BDF9487B
:101C300000780300FFF7E0FF07FD056667C8FCFBBF
:101C4000FA00F5484079202188432030F249487154
:101C500008464079102188431030EF4948714120EF
:101C600088700846007880088000C01C087008460C
:101C7000007A0C2188430C30E74908720846C07985
:101C800004218843001DE449C8710846807A302148
:101C900088431030E04988720846C078C009C00106
:101CA0006430C8700846407C20218843DA49487473
:101CB0000846407C10218843D74948741421D648EF
:101CC0008173007B80088000D34908730846007D3B
:101CD0000C218843001DD04908750846C07C0421AA
:101CE0008843001DCC49C8740846807D3021884354
:101CF0001030C94988750846C07BC009C0012D3025
:101D0000C87395E100BFC448407920218843C24987
:101D100048710846407910218843BF494871142012
:101D20008870084600788008800008700846007AAD
:101D30000C2188430C30B84908720846C079042148
:101D40008843001DB449C8710846807A3021884311
:101D50001030B14988720846C078C009C0012D30E2
:101D6000C8700846407C202188432030AA49487426
:101D70000846407C102188431030A749487441210F
:101D8000A5488173007B80088000C01CA2490873AD
:101D90000846007D0C218843001D9F4908750846B0
:101DA000C07C04218843001D9B49C8740846807D7F
:101DB000302188431030984988750846C07BC00997
:101DC000C0016430C87333E19348407920218843CF
:101DD00020309149487108464079102188431030DD
:101DE0008D4948712D208870084600788008800051
:101DF000801C08700846007A0C2188430C30864904
:101E000008720846C07904218843001D8249C871C0
:101E10000846807A3021884310307F49887208460E
:101E2000C078C009C0015030C87003E0FCE091E008
:101E300030E0FAE00846407C202188437649487427
:101E40000846407C10218843734948741421724825
:101E50008173007B800880006F4908730846007D0D
:101E60000C218843001D6C4908750846C07C04217C
:101E70008843001D6849C8740846807D3021884326
:101E80001030654988750846C07BC009C0012D30F7
:101E9000C873CDE060484079202188435E4948718D
:101EA00008464079102188435B494871084600780C
:101EB000800880000870142088700846C0790421CA
:101EC0008843001D5449C8710846007A0C21884394
:101ED0000C30514908720846807A3021884310300E
:101EE0004D4988720846C078C009C0012D30C870BD
:101EF0000846407C202188432030474948740846E2
:101F0000407C102188431030434948740846007BC8
:101F100080088000801C08732D213F488173C07C9D
:101F200004218843001D3C49C8740846007D0C21EB
:101F30008843001D384908750846807D3021884354
:101F40001030354988750846C07BC009C001503043
:101F5000C8736DE0304840792021884320302E49F5
:101F60004871084640791021884310302A49487149
:101F70000846007880088000401C08701E20887089
:101F80000846C07904218843001D2349C8710846CA
:101F9000007A0C2188430C301F4908720846807A69
:101FA0003021884310301C4988720846C078C00927
:101FB000C0013C30C8700846407C20218843203056
:101FC000154948740846407C102188431030124956
:101FD00048740846007B80088000401C08731E215E
:101FE0000D488173C07C04218843001D0A49C874D0
:101FF0000846007D0C218843001D074908750846E6
:10200000807D30218843103003498875084605E0FB
:10201000160000201100002044000020C07BC009F1
:10202000C0013C30C87303E000BF00F085FA00BF78
:1020300000BF164880784006400E1549096888425E
:102040000CD0124880784006400E114908601148B3
:10205000007840084000401C0E4908700B48807B07
:102060004006400E0C49096888420CD00748807B26
:102070004006400E0849086006480078022188435F
:10208000801C0449087000BFD0E500004400002017
:1020900018000020120000201C000020FEB50220C5
:1020A000A849087000200190A74800784007C00F99
:1020B00000281DD10220FFF7C1FCFFF774FB009040
:1020C0000420FFF7BBFCFFF761FB05462812002840
:1020D00002DD2D119D4F00E09D4F0098684385B2B1
:1020E000BD4202DB0120019001E00020019002E0EE
:1020F000FFF7D2F90190FFF7E2F906460120914976
:102100000870FFF7EFF904468F480078C107C90F40
:10211000A14253D08F480078401CC0B28D4908704E
:1021200002284EDD002008708748007840084000F3
:10213000E107C90F08438449087008460078C007C2
:10214000C00F002826D0084600788007C00F00285E
:1021500005D1084600784007C00F002816D002209D
:1021600078490870FFF76AFCFFF71DFB054606205B
:10217000684305017D20C001854203D905207649C9
:10218000087002E00620744908701AE001207249C4
:10219000087016E06C4800788007C00F002805D151
:1021A000694800784007C00F002803D002206A4920
:1021B000087006E000206849087002E000206549C8
:1021C0000870614800788007C00FB04255D063485E
:1021D0000078401CC0B261490870022850DD002020
:1021E000087059480078022188437100022211408A
:1021F000084355490870084600788007C00F00283A
:1022000027D0084600784007C00F002838D108467C
:102210000078C007C00F002817D001204949087076
:102220000220FFF70BFCFFF7BEFA054606206843C5
:1022300005017D20C001854203D90420464908706C
:1022400002E00620444908701AE002204249087062
:1022500016E03D4800784007C00F002810D13A48EA
:102260000078C007C00F002803D001203A49087049
:1022700006E000203849087002E000203749087065
:10228000314800784007C10F0198814256D0344848
:102290000078401CC0B232490870022851DD00208D
:1022A0000870294800780421884301998900042294
:1022B0001140084324490870084600784007C00FC1
:1022C000002827D0084600788007C00F002838D1A2
:1022D00008460078C007C00F002817D00120194910
:1022E00008700220FFF7AAFBFFF75DFA05460620FB
:1022F000684305017D20C001854203D904201649A9
:10230000087002E00620144908701AE00320124900
:10231000087016E00C4800788007C00F002810D124
:1023200009480078C007C00F002803D001200A49DF
:10233000087006E000200849087002E00020084903
:102340000870FEBD0D000020100000208B02000070
:10235000B02800001300002011000020140000200D
:102360001500002038B502204A4908700820FEF701
:10237000B9F8009048480078002804D001281DD002
:1023800002287DD161E0684600780009062804D063
:1023900068460078000907280CD140480068401CB6
:1023A0003E490860022808D30020086001203A490D
:1023B000087002E000203949086069E0684600784A
:1023C0000009082820D135480068401C33490860BE
:1023D00002281CD3002008603148807D40218843BA
:1023E0002F4988750120FFF717FA2E480068082842
:1023F00001D9FFF785F802202749087000202949F4
:1024000008602949086002E0002024490860684605
:1024100000780009052808D100201F4908702149CB
:102420000860214908601D4908600320FFF706FB8A
:10243000FFF7ACF904461B48008882B21A492046CF
:10244000FFF75CFB1749086022E068460078000946
:10245000082818D011480068401C1049086002285C
:1024600014D3002008600E48807D4021884340300E
:102470000B4988750120FFF7CFF90020064900E0DD
:1024800005E0087002E000200449086000E000BF99
:1024900000BF38BD0D000020280000202C000020C7
:1024A00044000020300000203400002010B501203E
:1024B000204908700020FFF7F9F80020FFF7E6F93F
:1024C0000020FEF7DFFF0020FFF718FA0020FFF7DB
:1024D000A3F90020FFF7B0F80020FFF72BF9002048
:1024E000FFF770F80020FEF793FF0020FFF7B8FA1F
:1024F0000220104908700020FFF7D8F80020FFF7ED
:10250000C5F90020FEF7BEFF0020FFF7F7F9002015
:10251000FFF782F90020FFF78FF80020FFF70AF994
:102520000020FFF74FF80020FEF772FF0020FFF7B2
:1025300097FA10BD0D0000207F48007880088000C9
:10254000C01C7D49087008460078802188437A497C
:102550000870084640780C21884308307649487056
:10256000412088700846C078C009C0013C30C8705E
:102570000846C078802188436F49C87008460079B2
:10258000C009C0013C3008710846007980218843A9
:10259000694908717D20487108468079082188437F
:1025A0000830654988710846C07904218843001DB8
:1025B0006149C8710846007A0C2188430C305E4995
:1025C00008720846407A082188435B4948720846E9
:1025D000807A302188431030574988720846807AC3
:1025E000402188434030544988720846C07A8008A8
:1025F0008000C01CC8720846C07A042188434E4936
:10260000C8720846C07A082188434B49C8720846F8
:10261000C07A3021884330304749C8720846C07AB2
:10262000402188434449C8720846C07A80218843C3
:102630004149C872002008760846007B8008800067
:1026400008730846007B802188433B49087308468D
:10265000407B0C2188430C30374948734121364870
:102660008173C07BC009C0013C303349C873084640
:10267000C07B802188433049C8730846007CC0096C
:10268000C0013C3008740846007C802188432A49F8
:102690000874FD2128484174807C08218843083053
:1026A000254988740846C07C04218843001D2249BE
:1026B000C8740846007D0C218843001D1E4908751A
:1026C0000846407D082188431B4948750846807D9F
:1026D000302188431030184988750846807D402194
:1026E00088434030144988750846C07D80088000C2
:1026F000C01CC8750846C07D042188430E49C875B2
:102700000846C07D082188430B49C8750846C07D2E
:102710003021884330300849C8750846C07D4021C3
:1027200088430549C8750846C07D80218843024911
:10273000C8750020487670474400002010B5FFF7A8
:10274000FBFE012022490870FEF7B0FF0120FFF7D1
:102750009DF80120FEF796FE02201D490870012019
:10276000FEF7A4FF0120FFF791F80120FEF78AFE93
:10277000012017490870FFF7C1F80120FFF74CF856
:102780000120FEF759FF0120FEF7D4FF0120FEF7DC
:1027900019FF0120FEF73CFE0120FFF761F902203E
:1027A0000B4908700120FFF7A9F80120FFF734F862
:1027B0000120FEF741FF0120FEF7BCFF0120FEF7DC
:1027C00001FF0120FEF724FE0120FFF749F910BDAB
:1027D0000D00002008B5FEF7E3F9FFF7BBF900BFD5
:1027E000224880680821084320498860084680689C
:1027F00008210840009000BF00BFFDF7D5FDFDF7A0
:10280000F1FD3220FEF766F8012019490870FDF746
:1028100069FE0220164908700120FDF763FEFFF7EC
:102820008DFF21E013480079002802D000201149D3
:10283000087110484079002816D000200D494871D1
:1028400001200B490870FEF78BFE02200849087032
:10285000FEF786FEFFF786FDFFF720FCFFF7DAF9AB
:10286000FFF724FEFDF7D0FFDCE700000000024088
:102870000D000020380000209828000000000020F3
:102880004400000004010000DC2800004400002097
:102890007C0400002001000000093D000000000051
:1028A0000400000001000000000000000000000023
:1028B0000000000000000000000000000000000018
:1028C0000000000000000000000000000000000008
:0C28D000000000000000000000000000FC
:04000005000000C136
:00000001FF
