:020000040000FA
:10000000A004002065010000CF140000851400004A
:1000100000000000000000000000000000000000E0
:10002000000000000000000000000000811500003A
:1000300000000000000000004D1500007D170000CA
:10004000DD090000DF090000E1090000E30900000C
:10005000DB09000000000000411800004318000008
:10006000CB140000000000007F150000000000001D
:100070008914000000000000391800003B1800003F
:10008000C9140000000000003D1800003F180000E7
:10009000000000004B150000471800008B14000002
:1000A000A3030000CD14000045180000000000006C
:1000B000A5030000491500007D1500001D09000082
:1000C00000F002F800F03EF80CA030C80838241800
:1000D0002D18A246671EAB4654465D46AC4201D180
:1000E00000F030F87E460F3E0FCCB6460126334274
:1000F00000D0FB1AA246AB4633431847BC29000088
:10010000DC290000103A02D378C878C1FAD8520727
:1001100001D330C830C101D504680C6070470000BD
:100120000023002400250026103A01D378C1FBD813
:10013000520700D330C100D50B6070471FB51FBDFB
:1001400010B510BD00F0FAF81146FFF7F7FF02F006
:10015000D7F800F012F903B4FFF7F2FF03BC00F088
:1001600019F900000748804707480047FEE7FEE707
:10017000FEE7FEE7FEE7FEE704480549054A064BB1
:1001800070470000F9170000C1000000A000002027
:10019000A0040020A0020020A002002001E004C072
:1001A000091F0429FBD28B0701D50280801CC907D7
:1001B00000D00270704700290BD0C30702D0027034
:1001C000401C491E022904D3830702D50280801CEB
:1001D000891EE3E70022EEE70022DFE700220309A1
:1001E0008B422CD3030A8B4211D300239C464EE052
:1001F00003460B433CD4002243088B4231D303090E
:100200008B421CD3030A8B4201D394463FE0C309BF
:100210008B4201D3CB01C01A524183098B4201D3D7
:100220008B01C01A524143098B4201D34B01C01AC2
:10023000524103098B4201D30B01C01A5241C3083A
:100240008B4201D3CB00C01A524183088B4201D3A9
:100250008B00C01A524143088B4201D34B00C01A95
:100260005241411A00D201465241104670475DE0AA
:10027000CA0F00D04942031000D34042534000222D
:100280009C4603098B422DD3030A8B4212D3FC22D6
:10029000890112BA030A8B420CD3890192118B4255
:1002A00008D3890192118B4204D389013AD092116B
:1002B00000E08909C3098B4201D3CB01C01A524126
:1002C00083098B4201D38B01C01A524143098B42EF
:1002D00001D34B01C01A524103098B4201D30B01D8
:1002E000C01A5241C3088B4201D3CB00C01A5241FD
:1002F00083088B4201D38B00C01A5241D9D24308E4
:100300008B4201D34B00C01A5241411A00D2014620
:10031000634652415B10104601D34042002B00D58A
:100320004942704763465B1000D3404201B500204C
:10033000C046C04602BD704770477047754600F022
:1003400025F8AE46050069465346C008C0008546FC
:1003500018B020B5FFF710FF60BC00274908B6466B
:100360000026C0C5C0C5C0C5C0C5C0C5C0C5C0C5C4
:10037000C0C5403D49008D46704710B50446C04693
:10038000C0462046FFF7E7FE10BD0000004870475A
:100390004000002001491820ABBEFEE72600020005
:1003A000704770477047000000B58DB03421684633
:1003B000FFF712FF0C200090012001900020039015
:1003C00004900790089002906946074800F020FBCF
:1003D00001220821044800F066FC012204210248A1
:1003E00000F061FC0DB000BD001C024000B58DB0F6
:1003F00034216846FFF7F0FE302000900120019084
:1004000000200390049007900890029069460748E6
:1004100000F0FEFA01222021044800F044FC0122F1
:100420001021024800F03FFC0DB000BD001C02404E
:1004300070B5002401F052F9082517E06006040E9B
:1004400001220821164800F02EFC0421144800F077
:100450001DFC002801D0601CC4B2002208211048F5
:1004600000F021FC00F05BFA681EC5B2002DE5DC4F
:10047000012204210A4800F016FC01F057F901227C
:100480000821074800F00FFC00F049FA002208217B
:10049000034800F008FC00F042FA204670BD00005E
:1004A000001C024070B5002401F02CF9082517E06B
:1004B0006006040E01222021164800F0F4FB1021F2
:1004C000144800F0E3FB002801D0601CC4B20022F5
:1004D0002021104800F0E7FB00F029FA681EC5B2A1
:1004E000002DE5DC012210210A4800F0DCFB01F0C0
:1004F00031F901222021074800F0D5FB00F017FA5E
:1005000000222021034800F0CEFB00F010FA204624
:1005100070BD0000001C024010B50446054800787C
:10052000012803D1204600F007F810BD204600F056
:100530002FF8FAE70D00002070B5044600BF00F068
:1005400053F8782000F0C4F800F090F9002802D1A8
:1005500000F08AF8F3E7204600F0BAF800F086F9D8
:10056000002802D100F080F8E9E700F03DF879209A
:1005700000F0AEF800F07AF9002802D100F074F82B
:10058000DDE7FFF755FF054600F06EF8284670BD21
:1005900070B5044600BF00F047F8782000F0CEF8B0
:1005A00000F090F9002802D100F078F8F3E7204637
:1005B00000F0C4F800F086F9002802D100F06EF8CF
:1005C000E9E700F031F8792000F0B8F800F07AF9A6
:1005D000002802D100F062F8DDE7FFF763FF05466F
:1005E00000F05CF8284670BD10B5012204210D48CA
:1005F00000F059FB00F093F901220821094800F0AE
:1006000052FB00F08CF900220421064800F04BFB5D
:1006100000F085F900220821024800F044FB00F0B8
:100620007EF910BD001C024010B5012210210D48BA
:1006300000F039FB00F07BF901222021094800F08D
:1006400032FB00F074F900221021064800F02BFB69
:1006500000F06DF900222021024800F024FB00F098
:1006600066F910BD001C024010B5002204210A48A2
:1006700000F019FB00F053F901220821064800F0B0
:1006800012FB00F04CF901220421034800F00BFB9F
:1006900000F045F910BD0000001C024010B500221A
:1006A00010210A4800F0FFFA00F041F90122202150
:1006B000064800F0F8FA00F03AF901221021034848
:1006C00000F0F1FA00F033F910BD0000001C024008
:1006D00070B5044601220421174800F0E4FA082509
:1006E00020E000220821144800F0DDFA802020409C
:1006F000002805D0012204210F4800F0D4FA04E0BC
:10070000002204210C4800F0CEFA00F008F9012282
:100710000821094800F0C7FA00F001F96006040E4C
:10072000681EC5B2002DDCDC00220821024800F062
:10073000BAFA00F0F4F870BD001C024070B504462F
:1007400001221021174800F0AEFA082520E000220F
:100750002021144800F0A7FA80202040002805D06E
:10076000012210210F4800F09EFA04E0002210211F
:100770000C4800F098FA00F0DAF80122202109482C
:1007800000F091FA00F0D3F86006040E681EC5B2BE
:10079000002DDCDC00222021024800F084FA00F069
:1007A000C6F870BD001C024070B504460D460748EF
:1007B0000078012804D12946204600F009F803E01A
:1007C0002946204600F02BF870BD00000D000020E7
:1007D00070B505460C4600BFFFF706FF7820FFF70F
:1007E00077FF00F043F8002802D1FFF73DFFF3E761
:1007F0002846FFF76DFF00F039F8002802D1FFF717
:1008000033FFE9E72046FFF763FF00F02FF80028E9
:1008100002D1FFF729FFDFE7FFF726FF70BD70B5B4
:1008200005460C4600BFFFF7FFFE7820FFF786FF66
:1008300000F048F8002802D1FFF730FFF3E7284620
:10084000FFF77CFF00F03EF8002802D1FFF726FFFB
:10085000E9E72046FFF772FF00F034F8002802D1E4
:10086000FFF71CFFDFE7FFF719FF70BD10B500248D
:1008700000F034FF01220421114800F014FA00F0C6
:100880004EF8012208210E4800F00DFA08E0601C25
:10089000C0B20446FA2803DD00F048FF002010BD76
:1008A0000421074800F0F2F90028F0D100220821C5
:1008B000034800F0F8F900F039FF0120EFE70000ED
:1008C000001C024010B5002400F01CFF0122102182
:1008D000114800F0E8F900F02AF8012220210E4822
:1008E00000F0E1F908E0601CC0B20446FA2803DD1C
:1008F00000F030FF002010BD1021074800F0C6F9BD
:100900000028F0D100222021034800F0CCF900F0AB
:1009100021FF0120EFE70000001C02407047142077
:1009200000E000BF0146401E0029FAD170471420A4
:1009300000E000BF0146401E0029FAD170470000C8
:1009400010B5002009498875012009490870002167
:100950001220FFF729FF00200449C875022004492E
:10096000087000211220FFF71FFF10BD1C0000209F
:100970000D00002010B516480078012813D1154845
:10098000807D002822D10120124988752021122063
:10099000FFF70AFF40211220FFF706FF80211220F7
:1009A000FFF702FF12E00B48C07D00280ED10120A6
:1009B0000849C87520211220FFF7F6FE40211220B9
:1009C000FFF7F2FE80211220FFF7EEFE10BD0000BF
:1009D0000D0000201C0000207047704770477047D2
:1009E0007047704770B5044600F064F90646254626
:1009F000681C002802D0054800782D1800BF00F0C0
:100A000059F9801BA842FAD370BD00000C000020E9
:100A1000F8B50B460024002500950022002131E1A5
:100A200001258D402C461D6825400095009DA5425E
:100A30007ED1056901268E40B5430561056A012610
:100A40008E40B5430562456A01268E40B543456236
:100A5000856A01268E40B5438562856C8F000F261E
:100A6000BE40B5438564056801268E40B5430560E8
:100A7000456BFF268E40B5434563056C01268E40CD
:100A800035430564C56B4F000326BE40B543C563BF
:100A90005D68022D0DD1826C4D07EE0E0F25B5401D
:100AA0001646AE4332464E07F60E1D6BB5402A433E
:100AB00082645D68042D08D1826C4D07EE0E0F250F
:100AC000B5401646AE43324682645D68032D0DD1B3
:100AD000826C4D07EE0E0F25B5401646AE433246EA
:100AE0004D07EE0E0F25B5402A4382645D68002D48
:100AF00008D102684E07760F0125B5401646AE4371
:100B0000324602605D68012D0CD102684E07760FF7
:100B1000B5401646AE4332464E07760F0125B54026
:100B20002A4302601D69012D14D1856B9E6900E086
:100B30009CE035438563426B4E07760F0125B54037
:100B40001646AE4332464E07760F1D69B5402A431E
:100B5000426322E05D69012D16D1426B4E07760F8C
:100B6000B5401646AE4332464263826B10261546A8
:100B7000B5432A468263426B36011546B5432A4681
:100B80005D692A43426308E0426B4E07760F0125F8
:100B9000B5401646AE4332464263456BEDB2002D7A
:100BA00005D0856B1E6936013543856303E0856B8F
:100BB0001026B5438563C26B4E000325B54016462B
:100BC000AE4332464E009D68B5402A43C263426838
:100BD00003258D401646AE433246DD688D402A43DC
:100BE0004260026C01258D401646AE433246DD69F7
:100BF0008D402A430264426C01258D401646AE4367
:100C000032461D6A8D402A434264012636075D68DC
:100C10003540B54235D1026901258D401646AE43B7
:100C200032465D6A8D402A430261026A01258D4089
:100C30001646AE4332469D6A8D402A430262DD6A03
:100C4000002D02D0DD6A012D11D1826A01258D406F
:100C50001646AE4332468262426A01258D401646F0
:100C6000AE433246DD6A8D402A43426209E0826A21
:100C700001258D401646AE43324601258D402A435C
:100C80008262491C082900D2CAE6F8BD0246D36830
:100C90000B40002B01D0012000E00020704782684B
:100CA0004A4082607047002A01D0C16200E00163BF
:100CB00070470000014800687047000004000020F1
:100CC00003480068034909784018014908607047E3
:100CD000040000200C00002010B5032000F004F8F0
:100CE00000F02CF8002010BD70B5044610480178C3
:100CF0007D20C000FFF772FA064631460D480068B5
:100D0000FFF76CFA054600F0A1FB002801D0012096
:100D100070BD042C07D221460020C04300F00FF81C
:100D20000548046001E00120F2E70020F0E7000040
:100D30000C0000200000002008000020704770B563
:100D400004460D462946204600F0C2FB70BD000057
:100D500070B504460025022120680840022814D1FD
:100D6000042120680840042807D169484068000A27
:100D70000002E16808436649486065480068000A67
:100D80000002A1680843624908602078C007C00FCC
:100D9000002853D06068012809D15D48806A01218C
:100DA00009030840000B002823D1012070BD6068B2
:100DB000022808D15648C06A40210840800900280E
:100DC00017D10120F2E76068042809D15048006B70
:100DD000012109030840000B00280AD10120E5E7A2
:100DE0004B48406B402108408009002801D1012078
:100DF000DCE700BF47484649403108624649606821
:100E00000843434948624348401E41494031086213
:100E100000BFFFF74FFF0546606801280FD107E0CC
:100E2000FFF748FF401B3D49884201D90320BDE739
:100E30003748406A0007000F0128F1D137E06068A9
:100E400002280FD107E0FFF735FF401B33498842E6
:100E500001D90320AAE72E48406A0007000F0228A4
:100E6000F1D124E0606804280FD107E0FFF722FFEA
:100E7000401B2A49884201D9032097E72448406A49
:100E80000007000F0428F1D111E0606808280ED196
:100E900007E0FFF70FFF401B2049884201D90320DC
:100EA00084E71B48406A0007000F0828F1D104219D
:100EB00020680840042807D115484068000A00024D
:100EC000E16808431249486011480068C0B2002830
:100ED0000BD000F029F846080D480068C1B2304632
:100EE000FFF77CF90E49086003E000F01DF80C499B
:100EF00008606068042802D06068082802D10A20CF
:100F0000084908700320FFF7EFFE00204EE70000BD
:100F1000000002409966AA550000695A8813000033
:100F2000000000200C00002000210020244A516A0B
:100F30000A07120F012A04D0022A36D0042A39D116
:100F400035E01F4A926A1205120D1E4B1B889A4209
:100F500001D11D4828E01A4A926A1205120D194B58
:100F60005B889A4201D119481EE0154A926A12051F
:100F7000120D144B9B889A4201D1154814E0104A77
:100F8000926A1205120D0F4BDB889A4201D111486B
:100F90000AE00B4A926A1205120D0A4B1B899A420B
:100FA00001D10D4800E00C4807E00A4805E04B205D
:100FB000400202E00120C00300BF00BF70470000F4
:100FC00000000240A000001800366E01408651016A
:100FD0000024F40000127A0000093D0070B50446B8
:100FE00000252078C007C00F00282DD0FC48406A9B
:100FF0000007000F012828D1F948806A0121090360
:101000000840000B002804D16068012801D00120AD
:1010100070BD00BFF348F249403108620721490220
:10102000A068084088420AD0A0680840002806D07E
:1010300020890005000DEC494018E9498862E9481B
:10104000401EE7494031086268E0606800283FD0F0
:1010500000BFE448E2494031086207214902A06824
:10106000084088420AD0A0680840002806D020899D
:101070000005000DDC494018D9498862D948401E56
:10108000D7494031086200BF00BF401C0862D44805
:10109000006AD549491C0843D1490862D148401E1D
:1010A000CF494031086200BFFFF704FE054606E065
:1010B000FFF700FE401B022801D90320A8E7C8481B
:1010C000806A012109030840000B0028F0D025E0C8
:1010D00000BFC448C24940310862C148006A4008A4
:1010E0004000C1490843BE490862BE48401EBC4991
:1010F0004031086200BFFFF7DDFD054606E0FFF75F
:10110000D9FD401B022801D9032081E7B448806A39
:10111000012109030840000B0028F0D108212068B4
:10112000084008287DD12069002854D000BFAD496F
:10113000AB4A403211620020A949096BC805C00DB5
:1011400061690843A8490143A54A1163A549491E9D
:10115000A34A4032116200BF00BF491C1162002047
:101160009F49096B0322920211400846218BC90551
:10117000C90D08439C490143994A11639949491E85
:10118000974A4032116200BF00BF481C11460862F6
:101190009348006A9449091D08439149086291489F
:1011A000401E1146086200BFFFF784FD054606E0B9
:1011B000FFF780FD401B022801D9032028E788485B
:1011C000006B012109030840000B0028F0D001202A
:1011D00000F0BEF925E000BF824881494031086235
:1011E0007F48006A042188437F4908437C4908629C
:1011F0007C48401E7A494031086200BFFFF75AFD23
:10120000054606E0FFF756FD401B022801D90320E2
:10121000FEE67348006B012109030840000B00281B
:10122000F0D1022120680840022876D16C48406A3B
:101230000007000F02280BD16948C06A402108400E
:101240008009002869D0E068002866D10120DFE627
:1012500000BF6448624940310862E068022807D153
:101260005F48006A6049891C08435D49086226E0BE
:10127000E068002808D15A48006A022188435A4988
:101280000843574908621AE0E068202807D154480B
:10129000006A554920310843514908620FE050481F
:1012A000006A02218843504908434D4908620846B4
:1012B000006A202188434C4908434949086249484B
:1012C000401E47494031086200BFE068002812D044
:1012D000FFF7F0FC054606E0FFF7ECFC401B642836
:1012E00001D9032094E63E48C06A402108408009A5
:1012F0000028F1D011E0FFF7DDFC054606E0FFF71E
:10130000D9FC401B642801D9032081E63448C06A17
:101310004021084080090028F1D1042120680840BC
:1013200004285CD100BF2F482D494031086289153F
:10133000E069884206D12A48406B2C490843284975
:1013400048633FE0E069002817D12548406B012140
:101350008902884324490843214948630846406B71
:1013600089158843204908431D4948630846406B56
:101370001F4908431A49486324E001214902E069F2
:1013800088420ED11648406B4910884316490843DD
:10139000134948630846406B16490843104948639F
:1013A00010E00F48406BFF21013188430E4908438C
:1013B0000B4948630846406B491588430A4908436E
:1013C000074948630748401E05494031086200BF8D
:1013D000E069002820D0FFF76DFC054614E02EE000
:1013E000000002409966AA550000695A0001695A36
:1013F0000004695A0002695AFFF75CFC401B11495E
:10140000884201D9032003E60F48406B4021084081
:1014100080090028F0D012E0FFF74CFC054607E0F9
:10142000FFF748FC401B0749884201D90320EFE53C
:101430000548406B4021084080090028F0D1002079
:10144000E6E50000881300000000024070B5044685
:101450002546681E0949884201D901200CE0681E12
:10146000074948610321081F00F032F800200449B1
:10147000886107200861002070BD0000FFFFFF00A9
:1014800000E000E000BFFEE77047704700B58DB098
:1014900034216846FEF7A0FE202000900120019034
:1014A0000020039004900790089002906946054838
:1014B000FFF7AEFA002220210248FFF7F4FB0DB03F
:1014C00000BD000000180240704770477047704729
:1014D00010B5002819DA1A4A03071B0F083B9B08AE
:1014E0009B00D2588307DC0EFF23A3409A438B074F
:1014F0001B0E8407E40EA3401A43114B0407240F6C
:10150000083CA408A4001A5118E00E4A03231B0249
:10151000D21883089B00D2588307DC0EFF23A34018
:101520009A438B071B0E8407E40EA3401A43054B16
:10153000032424021B198408A4001A5110BD0000C2
:101540001CED00E000E100E07047704770470000CC
:1015500038B5044608490968C8087D21C900FEF766
:101560003DFE6043009000BF00BF0098411E009107
:101570000028F9D138BD00000000002070477047F6
:101580007047000030B589B0044600255148007806
:10159000012803D15048807A089002E04E48407DEF
:1015A0000890BE20FEF7B8FF0790002C05D16846D2
:1015B000017F08A8007881420DD00125FFF7DAF9F4
:1015C00008A8017807916846017FBE20FFF7ECF874
:1015D0006420FFF707FA3F480078012803D13E480E
:1015E000C078069002E03C48807B0690B520FEF76C
:1015F00093FF0590002C04D16846017D007E814256
:101600000CD00125FFF7B6F96846017E0591017DF2
:10161000B520FFF7C9F86420FFF7E4F92D480078FA
:10162000012803D12C480079049002E02A48C07BAD
:101630000490B620FEF770FF0390002C04D168469A
:10164000017B007C81420CD00125FFF793F96846AD
:10165000017C0391017BB620FFF7A6F86420FFF719
:10166000C1F91C480078012803D11B4880790290F9
:1016700002E01948407C0290B820FEF74DFF01902F
:10168000002C09D1684600790007C10F6846007A2E
:101690000007C00F814217D00125FFF76BF969469B
:1016A0000879082188436946097A0907C90FC900E2
:1016B000082211400843019068460179B820FFF7DD
:1016C00073F86420FFF78EF9002D01D000F022FF9F
:1016D00009B030BD0D0000201C00002000B58DB009
:1016E000042000900020019003900490079008903F
:1016F0000120029069460248FFF78AF90DB000BD4B
:10170000001C024000B58DB0102000900020019018
:1017100003900490079008900120029069460248C7
:10172000FFF776F90DB000BD001C024000B58DB08A
:101730000420009001200190002003900490079065
:101740000890029069460248FFF762F90DB000BDAB
:10175000001C024000B58DB01020009001200190C7
:101760000020039004900790089002906946024878
:10177000FFF74EF90DB000BD001C024010B5FFF799
:101780009FFA01200649487008460078401CC0B204
:101790000870642803DB002008700120887010BDE9
:1017A0001600002000B58DB0202105A8FEF714FD1D
:1017B0000020019002900390049001200590069073
:1017C0000C480088079005A8FFF708FC002801D006
:1017D000FFF702F9072001900120029000200390FA
:1017E000049001A8FFF7B4FA002801D0FFF7F4F83D
:1017F0000DB000BDA00000180B480C4908620C4851
:101800000A49403908620848401E08490862002019
:101810000649403908604860881588600020C86023
:1018200008610449886070479966AA5540000240E3
:101830000100695A00ED00E070477047704770473B
:10184000704770477047704730B47446641E2578FF
:10185000641CAB4204D3635D5B00E31830BC1847E3
:101860001D46F8E700B5DF480078DF49097888426F
:1018700004D0DD480078DB49087000E000BDDA489C
:1018800000780300FFF7E0FF07FD0551529EFEFBC5
:10189000FA007D20D54948714120887008460078BB
:1018A00080088000C01C08700846007A0C2188431C
:1018B0000C30CE4908720846C07904218843001DC7
:1018C000CA49C8710846407A302188431030C74958
:1018D00048720846C078C009C0016430C8704D2104
:1018E000C248017414214173C07A80088000BF4946
:1018F000C8720846C07C0C218843001DBB49C874CF
:101900000846807C04218843001DB8498874084635
:10191000007D302188431030B44908750846807B2B
:10192000C009C0012D30887359E100BF4D20AF4977
:10193000487114208870084600788008800008707C
:101940000846007A0C2188430C30A84908720846E2
:10195000C07904218843001DA449C8710846407A13
:10196000302188431030A14948720846C078C00928
:10197000C0012D30C8707D219C4801744121417304
:10198000C07A80088000C01C9849C8720846C07C94
:101990000C218843001D9549C8740846807C0421A9
:1019A0008843001D914988740846007D3021884392
:1019B00010308E4908750846807BC009C00164302C
:1019C00088730CE18A48007840084000401C884930
:1019D00008700846007802218843801C84490870FA
:1019E000002048607D20814948712D20887008467C
:1019F000007880088000801C08700846007A0C215E
:101A000088430C30794908720846C079042188431C
:101A1000001D7649C8710846407A3021884310304D
:101A2000724948720846C078C009C0015030C87079
:101A30004D216E48017414214173C07A80088000E2
:101A40006A49C8720846C07C0C218843001D67495A
:101A5000C8740846807C04218843001D634988744B
:101A60000846007D302188431030604908750846DB
:101A7000807BC009C0012D308873B0E0ABE05DE031
:101A800000E0A9E05A48007804218843001D584925
:101A900008700846007808218843083054490870C7
:101AA000002088604D205149487108460078800820
:101AB00080000870142088700846C079042188438B
:101AC000001D4A49C8710846007A0C2188430C3031
:101AD000464908720846407A30218843103043490D
:101AE00048720846C078C009C0012D30C8707D21F9
:101AF0003E480174C07A80088000801C3B49C8724F
:101B00002D213A484173807C04218843001D3749C8
:101B100088740846C07C0C218843001D3349C87472
:101B20000846007D3021884310303049087508464A
:101B3000807BC009C0015030887350E07D202B4964
:101B400048710846007880088000401C08701E20FC
:101B500088700846C07904218843001D2349C87154
:101B60000846007A0C2188430C3020490872084648
:101B7000407A3021884310301C4948720846C078AA
:101B8000C009C0013C30C8707D2118480174C07A7A
:101B900080088000401C1549C8721E2113484173FB
:101BA000807C04218843001D104988740846C07C4D
:101BB0000C218843001D0D49C8740846007D302162
:101BC00088431030094908750846807BC009C00168
:101BD0003C30887303E000BF00F04EFA00BF00BF46
:101BE00000BF4BE615000020110000201C00002063
:101BF00034000020FEB50220A849087000F04EFF16
:101C000000F0D9FE0290042000F048FF00F0C6FE6C
:101C100004462012002802DD2411A14E00E0A14E4E
:101C200000270298604384B2B44201DB012704E03C
:101C300000F04AFD002800D1002700F058FD019077
:101C400001209649087000F065FD05469648007829
:101C5000C007C00FA84256D094480078401CC0B2BC
:101C600092490870022851DD002008708E480078E3
:101C700040084000E907C90F08438B49087008462F
:101C80000078C007C00F002829D0084600788007D8
:101C9000C00F002805D1084600784007C00F002873
:101CA00019D002207D49087000F0F8FE00F083FE94
:101CB0000090062100984843000100907D21C90151
:101CC0000098884203D905207949087002E006206F
:101CD000774908701AE001207549087016E07248CB
:101CE00000788007C00F002805D16F4800784007B2
:101CF000C00F002803D002206D49087006E00020C4
:101D00006B49087002E00020684908706648007856
:101D10008007C10F0198814259D066480078401C65
:101D2000C0B264490870022854DD002008705E4883
:101D3000007802218843019949000222114008439A
:101D400059490870084600788007C00F00282AD03B
:101D5000084600784007C00F00283BD108460078AD
:101D6000C007C00F00281AD001204C49087002207B
:101D700000F094FE00F01FFE0090062100984843FA
:101D8000000100907D21C9010098884203D90420F8
:101D90004749087002E00620454908701AE0022011
:101DA0004349087016E0404800784007C00F0028FB
:101DB00010D13D480078C007C00F002803D0012093
:101DC0003B49087006E000203949087002E0002015
:101DD00038490870344800784007C00FB84258D0DE
:101DE00035480078401CC0B233490870022853DDE2
:101DF000002008702C48007804218843B900042290
:101E00001140084328490870084600784007C00F71
:101E100000282AD0084600788007C00F00283BD150
:101E200008460078C007C00F00281AD001211B48BF
:101E30000170022000F032FE00F0BDFD009006218E
:101E400000984843000100907D21C9010098884214
:101E500003D904201649087002E0062014490870CE
:101E60001AE003201249087016E00F480078800736
:101E7000C00F002810D10C480078C007C00F002800
:101E800003D001200A49087006E0002008490870C4
:101E900002E0002008490870FEBD00000D0000208F
:101EA0008B020000B028000010000020120000206B
:101EB00011000020130000201400002008B50220AB
:101EC000444908700820FEF727FB009042484078FC
:101ED000002804D001281DD0022877D150E06846A0
:101EE00000780009062804D0684600780009072811
:101EF0000CD139480078401CC0B23749087002281C
:101F000007DB002008700120487002E00020324901
:101F100008705CE0684600780009082824D12E4843
:101F20000078401CC0B22C49087002281FDB00203A
:101F30000870032000F0B2FD00F030FD082802DD3B
:101F400000F0AEFC08E02548007D4021884323498D
:101F50000875012000F034FD19204001FEF742FD14
:101F600002201D49487002E000201B4908706846A5
:101F700000780009052802D100201749487026E0A2
:101F800068460078000908281CD013480078401CD7
:101F9000C0B211490870022817DB002008700F48F2
:101FA000007D4021884340300C490875012000F035
:101FB00007FD19204001FEF715FD00200649487075
:101FC00003E003E000200449087000E000BF00BF08
:101FD00008BD00000D0000200E0000201C000020A5
:101FE00010B5012023490870002000F015FC0020E6
:101FF00000F01CFD002000F0DBFA002803D01920BF
:102000004001FEF7EFFC0020FFF7BCFA002000F0D3
:10201000D7FC002000F0C6FB002000F093FC00205D
:1020200000F086FB002000F089FA022011490870B8
:10203000002000F0F1FB002000F0F8FC002000F090
:10204000B7FA002803D019204001FEF7CBFC00208E
:10205000FFF798FA002000F0B3FC002000F0A2FB8C
:10206000002000F06FFC002000F062FB002000F078
:1020700065FA10BD0D0000207948007880088000C6
:10208000C01C77490870084600788021884374494D
:102090000870084640780C21884308307049487021
:1020A000412088700846C078C009C0016430C870FB
:1020B0000846C078802188436949C870084600797D
:1020C000C009C00164300871084600798021884346
:1020D000634908717D20487108468079082188434A
:1020E00008305F4988710846C07904218843001D83
:1020F0005B49C8710846007A0C2188430C30584966
:1021000008720846407A302188431030544948729A
:102110000846407A40218843403051494872084679
:10212000807A80088000401C88720846807A0421EA
:1021300088434B4988720846807A08218843484979
:1021400088720846807A302188431030444988726A
:102150000846807A40218843414988720846807A3F
:10216000802188433E498872002088750846C07ADD
:1021700080088000C8720846C07A802188433849A8
:10218000C8720846007B0C2188430C303449087320
:10219000412133484173807BC009C001643030491C
:1021A00088730846807B802188432D4988730846C0
:1021B000C07BC009C0016430C8730846C07B802161
:1021C00088432749C8737D2125480174407C082134
:1021D00088430830224948740846807C042188439B
:1021E000001D1F4988740846C07C0C218843001DCF
:1021F0001B49C8740846007D3021884310301849B7
:1022000008750846007D4021884340301449087510
:102210000846407D80088000401C48750846407D87
:10222000042188430E4948750846407D08218843AB
:102230000B4948750846407D3021884310300849D5
:1022400048750846407D4021884305494875084641
:10225000407D80218843024948750020C875704739
:102260001C00002010B5FFF707FF0120234908706C
:1022700000F0D2FA012000F0D9FB012000F098F91B
:102280000A20FEF7AFFB02201C490870012000F075
:10229000C3FA012000F0CAFB012000F089F91920DF
:1022A0004001FEF79FFB012014490870FFF76AF90F
:1022B000012000F085FB012000F074FA012000F0FD
:1022C00041FB012000F034FA012000F037F9022030
:1022D0000A4908700120FFF755F9012000F070FB52
:1022E000012000F05FFA012000F02CFB012000F03B
:1022F0001FFA012000F022F910BD00000D0000209F
:1023000008B5FEF7E9FCFFF74DFA00BF7C4880688E
:10231000042108437A4988600846806804210840FF
:10232000009000BF00BFFFF7B1F800BF744880689D
:1023300008210843724988600846806808210840DF
:10234000009000BF00BFFEF72FF8FEF74FF83220D5
:10235000FEF748FB01206B490870FEF7DDF802200C
:10236000684908700120FEF7D7F8FFF77BFFC6E049
:10237000FFF7A4FD644840780028F8D000206249A7
:1023800048700846807800287ED000208870FFF7CB
:1023900031FCFFF767FAFFF723FE20215B48FEF7C9
:1023A0007EFC5B4800788007C00F00284ED058485C
:1023B0004068401C56494860142847D908460078B0
:1023C000022188435249087001204E490870FEF7E7
:1023D000D1FA032000F062FB00F0E0FA0446A0000E
:1023E00024186408642C30D27620FEF795F800900B
:1023F0006846007841084900491C00916846007809
:1024000002218843811C0091684601787620FEF7FE
:10241000CBF919204001FEF7E5FA7620FEF77CF8AB
:1024200000906846007841084900009168460078AD
:10243000022188430090684601787620FEF7B4F9BF
:1024400019204001FEF7CEFA00BF00BF30480078E7
:102450000007C00F002850D02D488068401C2C4930
:102460008860142849D908460078082188432849FB
:102470000870022023490870FEF77CFA032000F060
:102480000DFB00F08BFA00E037E00446A0002418B2
:102490006408642C30D27620FEF73EF8009068463F
:1024A000007841084900491C0091684600780221E3
:1024B0008843811C0091684601787620FEF774F904
:1024C00019204001FEF78EFA7620FEF725F80090DD
:1024D000684600784108490000916846007802216A
:1024E00088430090684601787620FEF75DF9192050
:1024F0004001FEF777FA00BF00BFFEF721FA37E789
:10250000000002400D0000201600002000180240CC
:102510003400002008B57320FDF7FEFF00906846E8
:102520000078802188434118009168460178732023
:10253000FEF73AF96420FEF755FA08BD1CB50446CB
:1025400019480078012803D11848407A019002E028
:102550001648007D0190BD20FDF7DEFF0090002CA5
:1025600009D1684600788006810F684600798006A8
:10257000800F814216D0FEF7FDF9694608783021B8
:102580008843694609798906890F0901302211407B
:102590000843009068460178BD20FEF705F96420E5
:1025A000FEF720FA1CBD00000D0000201C000020DA
:1025B000FEB5044641480078012803D140488078A0
:1025C000029002E03E48407B0290B420FDF7A4FF59
:1025D0000190002C09D1684600794106490E6846F1
:1025E000007A4006400E814265D0FEF7C3F900250F
:1025F00000263248007801280DD132480078C00703
:10260000C00F002807D02F480078400840002D490F
:102610000870012526E02948007802280DD12948B4
:1026200000784007C00F002807D026480078042112
:10263000884324490870012614E07620FDF76CFFDA
:1026400000906846007841084900491C009168469E
:10265000007802218843811C009168460178762029
:10266000FEF7A2F86846007A4106490E01916846D5
:102670000179B420FEF798F8002D02D0FFF74AFF49
:1026800017E0002E02D0FFF745FF12E07620FDF79D
:1026900043FF009068460078410849000091684671
:1026A0000078022188430090684601787620FEF782
:1026B0007BF80120FEBD0020FCE700000D0000209B
:1026C0001C0000203400002008B50820FDF724FF7E
:1026D0000090694608780009072804D06846007809
:1026E0000009082801D1012008BD0020FCE708B539
:1026F0000820FDF711FF00906946087800090628B8
:1027000004D0684600780009082801D1012008BDDE
:102710000020FCE708B50820FDF7FEFE00906946A2
:10272000087800090B2801D1012008BD0020FCE732
:102730001CB5044619480078012803D11848C0790F
:10274000019002E01648807C0190B920FDF7E4FE7C
:102750000090002C09D1684600784007C10F6846F8
:1027600000794007C00F814216D0FEF703F9694691
:10277000087804218843694609794907C90F890007
:10278000042211400843009068460178B920FEF702
:102790000BF86420FEF726F91CBD00000D00002098
:1027A0001C0000201CB5044619480078012803D1FC
:1027B0001848007A019002E01648C07C0190BA20C7
:1027C000FDF7AAFE0090002C09D1684600780007AA
:1027D000810F684600790007800F814216D0FEF70E
:1027E000C9F8694608780C218843694609790907C0
:1027F000890F89000C221140084300906846017837
:10280000BA20FDF7D1FF6420FEF7ECF81CBD0000F4
:102810000D0000201C0000201CB504461E48007856
:10282000012803D11D480078019002E01B48C07ABE
:102830000190A620FDF770FE0090002C09D168469B
:1028400000788107890F684600798007800F8142F0
:1028500020D0002C0CD06946087880218843694636
:1028600009790906C90FC901802211400843009067
:102870006846007881088900684600798007800FE3
:102880000143009168460178A620FDF78DFF642082
:10289000FEF7A8F81CBD00000D0000201C00002061
:1028A0001CB5FEF767F87620FDF736FE0190684606
:1028B000007941084900491C0191684600790221CC
:1028C0008843811C0191684601797620FDF76CFFF1
:1028D000BD20FDF721FE0090684600784021884326
:1028E000009068460178BD20FDF75EFF1348007830
:1028F000012807D11248407A4021884340301049CE
:10290000487206E00E48007D4021884340300C4963
:1029100008757620FDF700FE0190684600794108B1
:102920004900019168460079022188430190684678
:1029300001797620FDF738FF1CBD00000D00002056
:102940001C0000201CB5044612480078012803D161
:1029500011484079019002E00F48007C0190B720B7
:10296000FDF7DAFD0090002C04D16846017800796B
:1029700081420ED0684601790091FDF7FBFF684661
:102980000178B720FDF710FF6420FEF72BF8FFF762
:10299000C1FD1CBD0D0000201C00002070B53B20B7
:1029A000FDF7BAFD044624013C20FDF7B5FD0546C0
:1029B0006419204670BD10B53B20FDF7ADFD10BD7C
:1029C0001CB5044617480078012803D11648407A00
:1029D000019002E01448007D0190BD20FDF79CFDB0
:1029E0000090002C09D1684600784006C10F684667
:1029F00000794006C00F814213D0FDF7BBFF694646
:102A0000087840218843694609794906C90F890138
:102A1000402211400843009068460178BD20FDF730
:102A2000C3FE1CBD0D0000201C0000201CB5044688
:102A300018480078012803D117484078019002E037
:102A40001548007B0190AB20FDF766FD0090002C3F
:102A500009D1684600780007810F684600790007B1
:102A6000800F814214D0694608780C21884369465A
:102A700009790907890F89000C2211400843009049
:102A800068460178AB20FDF78FFE6420FDF7AAFFB2
:102A90001CBD00000D0000201C00002038B50446BD
:102AA0003A20FDF739FD0090E1B2009168460178C7
:102AB0003A20FDF779FE38BDD82A0000000000203A
:102AC0001C00000004010000F42A00001C0000208B
:102AD000840400002001000000093D000000000007
:102AE00004000000010000000000000000000000E1
:042AF00000000000E2
:04000005000000C136
:00000001FF
