:020000040000FA
:10000000B804002065010000D7120000C9120000EA
:1000100000000000000000000000000000000000E0
:100020000000000000000000000000008913000034
:10003000000000000000000055130000E51400005F
:10004000490800004B0800004D0800004F08000060
:100050004708000000000000AD150000AF150000CB
:10006000D312000000000000871300000000000011
:10007000CD12000000000000A5150000A71500002B
:10008000D112000000000000A9150000AB1500000F
:100090000000000053130000B3150000CF12000051
:1000A000A3030000D5120000B115000000000000FD
:1000B000A50300005113000085130000DD070000B8
:1000C00000F002F800F03EF80CA030C80838241800
:1000D0002D18A246671EAB4654465D46AC4201D180
:1000E00000F030F87E460F3E0FCCB6460126334274
:1000F00000D0FB1AA246AB463343184780250000C8
:10010000A0250000103A02D378C878C1FAD8520767
:1001100001D330C830C101D504680C6070470000BD
:100120000023002400250026103A01D378C1FBD813
:10013000520700D330C100D50B6070471FB51FBDFB
:1001400010B510BD00F0FAF81146FFF7F7FF01F007
:1001500005FF00F012F903B4FFF7F2FF03BC00F053
:1001600019F900000748804707480047FEE7FEE707
:10017000FEE7FEE7FEE7FEE704480549054A064BB1
:100180007047000065150000C1000000B8000020A5
:10019000B8040020B8020020B802002001E004C02A
:1001A000091F0429FBD28B0701D50280801CC907D7
:1001B00000D00270704700290BD0C30702D0027034
:1001C000401C491E022904D3830702D50280801CEB
:1001D000891EE3E70022EEE70022DFE700220309A1
:1001E0008B422CD3030A8B4211D300239C464EE052
:1001F00003460B433CD4002243088B4231D303090E
:100200008B421CD3030A8B4201D394463FE0C309BF
:100210008B4201D3CB01C01A524183098B4201D3D7
:100220008B01C01A524143098B4201D34B01C01AC2
:10023000524103098B4201D30B01C01A5241C3083A
:100240008B4201D3CB00C01A524183088B4201D3A9
:100250008B00C01A524143088B4201D34B00C01A95
:100260005241411A00D201465241104670475DE0AA
:10027000CA0F00D04942031000D34042534000222D
:100280009C4603098B422DD3030A8B4212D3FC22D6
:10029000890112BA030A8B420CD3890192118B4255
:1002A00008D3890192118B4204D389013AD092116B
:1002B00000E08909C3098B4201D3CB01C01A524126
:1002C00083098B4201D38B01C01A524143098B42EF
:1002D00001D34B01C01A524103098B4201D30B01D8
:1002E000C01A5241C3088B4201D3CB00C01A5241FD
:1002F00083088B4201D38B00C01A5241D9D24308E4
:100300008B4201D34B00C01A5241411A00D2014620
:10031000634652415B10104601D34042002B00D58A
:100320004942704763465B1000D3404201B500204C
:10033000C046C04602BD704770477047754600F022
:1003400025F8AE46050069465346C008C0008546FC
:1003500018B020B5FFF710FF60BC00274908B6466B
:100360000026C0C5C0C5C0C5C0C5C0C5C0C5C0C5C4
:10037000C0C5403D49008D46704710B50446C04693
:10038000C0462046FFF7E7FE10BD0000004870475A
:100390005800002001491820ABBEFEE726000200ED
:1003A000704770477047000000B58DB03421684633
:1003B000FFF712FF0C200090012001900020039015
:1003C00004900790089002906946054800F056FA9C
:1003D00008200349C8620420C8620DB000BD0000B7
:1003E000001C024000B58DB034216846FFF7F4FED2
:1003F000302000900120019000200390049007908D
:10040000089002906946054800F038FA2020034918
:10041000C8621020C8620DB000BD0000001C024080
:1004200000200822144B1A631A46126804239A43C8
:10043000114B1A60082111E04206100E08220E4BE3
:10044000DA621A46D26804231A40002A01D0421CFC
:10045000D0B20822084B1A634A1ED1B20029EBDC45
:10046000054A126804231A43034B1A600422DA6215
:100470000822DA6270470000001C0240002020229F
:10048000144B1A631A46126810239A43114B1A60D0
:10049000082111E04206100E20220E4BDA621A46A5
:1004A000D26810231A40002A01D0421CD0B2202268
:1004B000084B1A634A1ED1B20029EBDC054A1268C8
:1004C00010231A43034B1A601022DA622022DA62E8
:1004D00070470000001C024010B504460548007833
:1004E000012803D1204600F007F810BD204600F097
:1004F0002FF8FAE71000002070B5044600BF00F0A6
:1005000053F8782000F07CF800F014F9002802D1AC
:1005100000F05EF8F3E7204600F072F800F00AF908
:10052000002802D100F054F8E9E700F03DF8792006
:1005300000F066F800F0FEF8002802D100F048F85C
:10054000DDE7FFF76DFF054600F042F8284670BD75
:1005500070B5044600BF00F031F8782000F06CF868
:1005600000F012F9002802D100F03EF8F3E720462F
:1005700000F062F800F008F9002802D100F034F829
:10058000E9E700F01BF8792000F056F800F0FCF8DD
:10059000002802D100F028F8DDE7FFF76FFF0546DD
:1005A00000F022F8284670BD04200349C8620820E4
:1005B000C862042008637047001C024010200349F1
:1005C000C8622020C862102008637047001C0240E7
:1005D000082004490863042008630820C862042036
:1005E000C8627047001C02402020044908631020A4
:1005F00008632020C8621020C8627047001C0240B7
:10060000082114E008220B4B1A6380220240002AC2
:1006100004D00422DA620822DA6204E00422054BE4
:100620001A630822DA624206100E4A1ED1B200296D
:10063000E8DC7047001C0240082114E020220B4B2C
:100640001A6380220240002A04D01022DA6220229B
:10065000DA6204E01022054B1A632022DA624206B5
:10066000100E4A1ED1B20029E8DC7047001C02407F
:1006700070B504460D4607480078012804D1294684
:10068000204600F009F803E02946204600F02BF848
:1006900070BD00001000002070B505460C4600BF7C
:1006A000FFF782FF7820FFF7ABFF00F043F8002848
:1006B00002D1FFF78DFFF3E72846FFF7A1FF00F017
:1006C00039F8002802D1FFF783FFE9E72046FFF75A
:1006D00097FF00F02FF8002802D1FFF779FFDFE73E
:1006E000FFF776FF70BD70B505460C4600BFFFF7FB
:1006F00065FF7820FFF7A0FF00F046F8002802D140
:10070000FFF772FFF3E72846FFF796FF00F03CF88B
:10071000002802D1FFF768FFE9E72046FFF78CFFCA
:1007200000F032F8002802D1FFF75EFFDFE7FFF7A5
:100730005BFF70BD08201349086308460068042168
:100740008843104908600820C8620846C068042130
:10075000084000280AD008200A49086308460068B3
:100760000421084307490860002070470820054914
:100770000863084600680421084302490860012014
:10078000F3E70000001C02402020134908630846DC
:10079000006810218843104908602020C86208467C
:1007A000C0681021084000280AD020200A490863A8
:1007B0000846006810210843074908600020704778
:1007C00020200549086308460068102108430249B3
:1007D00008600120F3E70000001C024070470000A1
:1007E00010B516480078012813D11548007E00285E
:1007F00022D101201249087620211220FFF738FF6C
:1008000040211220FFF734FF80211220FFF730FF34
:1008100012E00B48407E00280ED10120084948769E
:1008200020211220FFF724FF40211220FFF720FF94
:1008300080211220FFF71CFF10BD000010000020D7
:10084000300000207047704770477047704770470E
:1008500070B5044600F050F906462546681C00288D
:1008600002D0054800782D1800BF00F045F9801B24
:10087000A842FAD370BD00000C000020F8B50B466A
:100880000024002500950022002131E101258D4042
:100890002C461D6825400095009DA5427ED1056926
:1008A00001268E40B5430561056A01268E40B54399
:1008B0000562456A01268E40B5434562856A012678
:1008C0008E40B5438562856C8F000F26BE40B543D0
:1008D0008564056801268E40B5430560456BFF269B
:1008E0008E40B5434563056C01268E403543056453
:1008F000C56B4F000326BE40B543C5635D68022D3E
:100900000DD1826C4D07EE0E0F25B5401646AE4355
:1009100032464E07F60E1D6BB5402A4382645D6871
:10092000042D08D1826C4D07EE0E0F25B5401646FA
:10093000AE43324682645D68032D0DD1826C4D0753
:10094000EE0E0F25B5401646AE4332464D07EE0E6D
:100950000F25B5402A4382645D68002D08D10268E6
:100960004E07760F0125B5401646AE43324602606B
:100970005D68012D0CD102684E07760FB540164612
:10098000AE4332464E07760F0125B5402A4302603A
:100990001D69012D14D1856B9E6900E09CE03543F3
:1009A0008563426B4E07760F0125B5401646AE4370
:1009B00032464E07760F1D69B5402A43426322E056
:1009C0005D69012D16D1426B4E07760FB540164674
:1009D000AE4332464263826B10261546B5432A4623
:1009E0008263426B36011546B5432A465D692A4348
:1009F000426308E0426B4E07760F0125B54016466C
:100A0000AE4332464263456BEDB2002D05D0856B97
:100A10001E6936013543856303E0856B1026B543B7
:100A20008563C26B4E000325B5401646AE43324681
:100A30004E009D68B5402A43C263426803258D403D
:100A40001646AE433246DD688D402A434260026C52
:100A500001258D401646AE433246DD698D402A435E
:100A60000264426C01258D401646AE4332461D6A33
:100A70008D402A434264012636075D683540B54201
:100A800035D1026901258D401646AE4332465D6A76
:100A90008D402A430261026A01258D401646AE430D
:100AA00032469D6A8D402A430262DD6A002D02D0E3
:100AB000DD6A012D11D1826A01258D401646AE43B3
:100AC00032468262426A01258D401646AE43324666
:100AD000DD6A8D402A43426209E0826A01258D4029
:100AE0001646AE43324601258D402A438262491C98
:100AF000082900D2CAE6F8BD014800687047000026
:100B0000040000200348006803490978401801499F
:100B100008607047040000200C00002010B503207E
:100B200000F004F800F02CF8002010BD70B5044669
:100B3000104801787D20C000FFF750FB0646314683
:100B40000D480068FFF74AFB054600F0A1FB0028AE
:100B500001D0012070BD042C07D221460020C043E3
:100B600000F00FF80548046001E00120F2E70020E2
:100B7000F0E700000C00002000000020080000202A
:100B8000704770B504460D462946204600F0A4FB88
:100B900070BD000070B504460025022120680840A1
:100BA000022814D1042120680840042807D169488C
:100BB0004068000A0002E1680843664948606548E9
:100BC0000068000A0002A1680843624908602078B2
:100BD000C007C00F002853D06068012809D15D48C4
:100BE000806A012109030840000B002823D101205D
:100BF00070BD6068022808D15648C06A402108408C
:100C00008009002817D10120F2E76068042809D183
:100C10005048006B012109030840000B00280AD14D
:100C20000120E5E74B48406B40210840800900283F
:100C300001D10120DCE700BF474846494031086246
:100C4000464960680843434948624348401E414959
:100C50004031086200BFFFF74FFF0546606801287A
:100C60000FD107E0FFF748FF401B3D49884201D9FB
:100C70000320BDE73748406A0007000F0128F1D183
:100C800037E0606802280FD107E0FFF735FF401B0F
:100C90003349884201D90320AAE72E48406A000759
:100CA000000F0228F1D124E0606804280FD107E08A
:100CB000FFF722FF401B2A49884201D9032097E70A
:100CC0002448406A0007000F0428F1D111E0606851
:100CD00008280ED107E0FFF70FFF401B204988428C
:100CE00001D9032084E71B48406A0007000F082849
:100CF000F1D1042120680840042807D11548406834
:100D0000000A0002E168084312494860114800687F
:100D1000C0B200280BD000F029F846080D48006842
:100D2000C1B23046FFF75AFA0E49086003E000F0FE
:100D30001DF80C4908606068042802D06068082823
:100D400002D10A20084908700320FFF7EFFE0020B7
:100D50004EE70000000002409966AA550000695A5B
:100D600088130000000000200C000020002100205B
:100D7000244A516A0A07120F012A04D0022A36D0E7
:100D8000042A39D135E01F4A926A1205120D1E4B12
:100D90001B889A4201D11D4828E01A4A926A12051E
:100DA000120D194B5B889A4201D119481EE0154A71
:100DB000926A1205120D144B9B889A4201D1154874
:100DC00014E0104A926A1205120D0F4BDB889A420A
:100DD00001D111480AE00B4A926A1205120D0A4B22
:100DE0001B899A4201D10D4800E00C4807E00A48EF
:100DF00005E04B20400202E00120C00300BF00BF1D
:100E00007047000000000240A000001800366E018C
:100E1000408651010024F40000127A0000093D00D0
:100E200070B5044600252078C007C00F00282DD0DB
:100E3000FC48406A0007000F012828D1F948806A61
:100E4000012109030840000B002804D16068012833
:100E500001D0012070BD00BFF348F2494031086263
:100E600007214902A068084088420AD0A0680840CB
:100E7000002806D020890005000DEC494018E949FA
:100E80008862E948401EE7494031086268E06068CE
:100E900000283FD000BFE448E24940310862072102
:100EA0004902A068084088420AD0A068084000288B
:100EB00006D020890005000DDC494018D949886218
:100EC000D948401ED7494031086200BF00BF401CCE
:100ED0000862D448006AD549491C0843D1490862D0
:100EE000D148401ECF494031086200BFFFF704FEE1
:100EF000054606E0FFF700FE401B022801D903204B
:100F0000A8E7C848806A012109030840000B0028AF
:100F1000F0D025E000BFC448C24940310862C14852
:100F2000006A40084000C1490843BE490862BE4803
:100F3000401EBC494031086200BFFFF7DDFD054699
:100F400006E0FFF7D9FD401B022801D9032081E705
:100F5000B448806A012109030840000B0028F0D141
:100F600008212068084008287DD12069002854D035
:100F700000BFAD49AB4A403211620020A949096B5C
:100F8000C805C00D61690843A8490143A54A11631A
:100F9000A549491EA34A4032116200BF00BF491C47
:100FA000116200209F49096B0322920211400846FA
:100FB000218BC905C90D08439C490143994A116316
:100FC0009949491E974A4032116200BF00BF481C30
:100FD000114608629348006A9449091D08439149E3
:100FE00008629148401E1146086200BFFFF784FD69
:100FF000054606E0FFF780FD401B022801D90320CB
:1010000028E78848006B012109030840000B0028ED
:10101000F0D0012000F0A0F925E000BF824881490E
:10102000403108627F48006A042188437F490843B1
:101030007C4908627C48401E7A494031086200BF02
:10104000FFF75AFD054606E0FFF756FD401B022854
:1010500001D90320FEE67348006B01210903084013
:10106000000B0028F0D1022120680840022876D128
:101070006C48406A0007000F02280BD16948C06A1B
:10108000402108408009002869D0E068002866D126
:101090000120DFE600BF6448624940310862E06831
:1010A000022807D15F48006A6049891C08435D49EE
:1010B000086226E0E068002808D15A48006A022148
:1010C00088435A490843574908621AE0E0682028D3
:1010D00007D15448006A55492031084351490862F4
:1010E0000FE05048006A02218843504908434D49A7
:1010F00008620846006A202188434C490843494950
:1011000008624948401E47494031086200BFE06814
:10111000002812D0FFF7F0FC054606E0FFF7ECFCD4
:10112000401B642801D9032094E63E48C06A402150
:10113000084080090028F1D011E0FFF7DDFC0546EA
:1011400006E0FFF7D9FC401B642801D9032081E6A3
:101150003448C06A4021084080090028F1D10421A8
:101160002068084004285CD100BF2F482D49403139
:1011700008628915E069884206D12A48406B2C49EB
:101180000843284948633FE0E069002817D1254813
:10119000406B01218902884324490843214948635F
:1011A0000846406B89158843204908431D49486318
:1011B0000846406B1F4908431A49486324E001214F
:1011C0004902E06988420ED11648406B49108843B5
:1011D00016490843134948630846406B16490843BB
:1011E0001049486310E00F48406BFF2101318843EC
:1011F0000E4908430B4948630846406B491588432C
:101200000A490843074948630748401E05494031D9
:10121000086200BFE069002820D0FFF76DFC05469A
:1012200014E02EE0000002409966AA550000695AB9
:101230000001695A0004695A0002695AFFF75CFC10
:10124000401B1149884201D9032003E60F48406B37
:101250004021084080090028F0D012E0FFF74CFC44
:10126000054607E0FFF748FC401B0749884201D9C3
:101270000320EFE50548406B402108408009002825
:10128000F0D10020E6E500008813000000000240D5
:1012900070B504462546681E0949884201D90120D7
:1012A0000CE0681E074948610321081F00F014F88C
:1012B00000200449886107200861002070BD0000FB
:1012C000FFFFFF0000E000E000BFFEE7704770474F
:1012D000704770477047704710B5002819DA1A4AEE
:1012E00003071B0F083B9B089B00D2588307DC0EAB
:1012F000FF23A3409A438B071B0E8407E40EA340F1
:101300001A43114B0407240F083CA408A4001A51E7
:1013100018E00E4A03231B02D21883089B00D25800
:101320008307DC0EFF23A3409A438B071B0E840721
:10133000E40EA3401A43054B032424021B1984081E
:10134000A4001A5110BD00001CED00E000E100E017
:10135000704770477047000038B50446084909686F
:10136000C8087D21C900FEF739FF6043009000BF27
:1013700000BF0098411E00910028F9D138BD00003F
:1013800000000020704770477047000030B589B0FA
:101390000446002551480078012803D15048C07AFE
:1013A000089002E04E48C07D0890BE20FFF794F8F8
:1013B0000790002C05D16846017F08A8007881427B
:1013C0000DD00125FFF70CFA08A8017807916846AF
:1013D000017FBE20FFF74CF96420FFF739FA3F4840
:1013E0000078012803D13E48C078069002E03C48CE
:1013F000C07B0690B520FFF76FF80590002C04D154
:101400006846017D007E81420CD00125FFF7E8F996
:101410006846017E0591017DB520FFF729F964201A
:10142000FFF716FA2D480078012803D12C480079DF
:10143000049002E02A48007C0490B620FFF74CF8A4
:101440000390002C04D16846017B007C81420CD0C3
:101450000125FFF7C5F96846017C0391017BB620A1
:10146000FFF706F96420FFF7F3F91C48007801281C
:1014700003D11B488079029002E01948807C0290D9
:10148000B820FFF729F80190002C09D168460079AF
:101490000007C10F6846007A0007C00F814217D0CD
:1014A0000125FFF79DF969460879082188436946B7
:1014B000097A0907C90FC9000822114008430190A1
:1014C00068460179B820FFF7D3F86420FFF7C0F928
:1014D000002D01D000F03EFE09B030BD100000200C
:1014E0003000002010B5FFF70DFB012007490871FF
:1014F00008460068401C0860FF212D31884204D353
:101500000020024908600120487110BD2800002019
:1015100000B58DB0202105A8FEF75EFE00200190E9
:101520000290039004900120059006900C480089D9
:10153000079005A8FFF774FC002801D0FFF782F997
:10154000072001900120029000200390049001A840
:10155000FFF720FB002801D0FFF774F90DB000BDA4
:10156000A00000180B480C4908620C480A49403991
:1015700008620848401E08490862002006494039B0
:1015800008604860881588600020C86008610449C8
:10159000886070479966AA55400002400100695A68
:1015A00000ED00E070477047704770477047704724
:1015B0007047704730B47446641E2578641CAB4293
:1015C00004D3635D5B00E31830BC18471D46F8E7A1
:1015D00000B5E6480078E6490978884204D0E44836
:1015E0000078E249087000E000BDE148007803009F
:1015F000FFF7E0FF07FE0551529EEAFDFC007D204B
:10160000DC494871412088700846007880088000D5
:10161000C01C08700846007A0C2188430C30D5495C
:1016200008720846C07904218843001DD149C87159
:101630000846807A302188431030CE4988720846A7
:10164000C078C009C0016430C8704D21C9484174D8
:1016500014218173007B80088000C6490873084606
:10166000007D0C218843001DC24908750846C07CD6
:1016700004218843001DBF49C8740846807D30217D
:1016800088431030BB4988750846C07BC009C0013B
:101690002D30C87339E100BF4D20B6494871142080
:1016A0008870084600788008800008700846007A34
:1016B0000C2188430C30AF4908720846C0790421D8
:1016C0008843001DAB49C8710846807A30218843A1
:1016D0001030A84988720846C078C009C0012D3072
:1016E000C8707D21A348417441218173007B80082B
:1016F0008000C01C9F4908730846007D0C21884368
:10170000001D9C4908750846C07C04218843001DC3
:101710009849C8740846807D302188431030954927
:1017200088750846C07BC009C0016430C873ECE00E
:101730007D20904948712D208870084600788008E7
:101740008000801C08700846007A0C2188430C3009
:10175000884908720846C07904218843001D8549DC
:10176000C8710846807A30218843103081498872D8
:101770000846C078C009C0015030C8704D217D486E
:10178000417414218173007B8008800079490873BB
:101790000846007D0C218843001D764908750846DF
:1017A000C07C04218843001D7249C8740846807DAE
:1017B0003021884310306F4988750846C07BC009C6
:1017C000C0012D30C873A0E04D206A494871084619
:1017D0000078800880000870142088700846C0795E
:1017E00004218843001D6349C87102E089E03BE0A1
:1017F00088E00846007A0C2188430C305D49087265
:101800000846807A3021884310305A498872084649
:10181000C078C009C0012D30C8707D215548417481
:10182000007B80088000801C524908732D2151489C
:101830008173C07C04218843001D4E49C87408464A
:10184000007D0C218843001D4A4908750846807DAB
:10185000302188431030474988750846C07BC0094D
:10186000C0015030C87350E07D204249487108469D
:10187000007880088000401C08701E208870084690
:10188000C07904218843001D3A49C8710846007A8E
:101890000C2188430C30374908720846807A302181
:1018A00088431030334988720846C078C009C001A7
:1018B0003C30C8707D212F484174007B8008800037
:1018C000401C2C4908731E212A488173C07C0421C6
:1018D0008843001D2749C8740846007D0C218843B1
:1018E000001D244908750846807D3021884310304A
:1018F000204988750846C07BC009C0013C30C873C8
:1019000003E000BF00F0D6F900BF00BF194880789F
:101910004006400E1849096888420ED01548807864
:101920004006400E14490860144800784008400002
:10193000401C12490870002048600E48807B400619
:10194000400E0F49096888420ED00A48807B400645
:10195000400E0B4908600948007802218843801C2A
:10196000064908700020886000BF3DE61D00002089
:101970001900002030000020200000204C00002032
:1019800024000020FEB50220A849087000F02EFEB9
:1019900000F0B9FD0290042000F028FE00F0A6FD42
:1019A00004462012002802DD2411A14E00E0A14EC1
:1019B00000270298604384B2B44201DB012704E0AF
:1019C00000F07CFC002800D1002700F08AFC019088
:1019D00001209649087000F097FC0546964800786B
:1019E000C007C00FA84256D094480078401CC0B22F
:1019F00092490870022851DD002008708E48007856
:101A000040084000E907C90F08438B4908700846A1
:101A10000078C007C00F002829D00846007880074A
:101A2000C00F002805D1084600784007C00F0028E5
:101A300019D002207D49087000F0D8FD00F063FD48
:101A40000090062100984843000100907D21C901C3
:101A50000098884203D905207949087002E00620E1
:101A6000774908701AE001207549087016E072483D
:101A700000788007C00F002805D16F480078400724
:101A8000C00F002803D002206D49087006E0002036
:101A90006B49087002E000206849087066480078C9
:101AA0008007C10F0198814259D066480078401CD8
:101AB000C0B264490870022854DD002008705E48F6
:101AC000007802218843019949000222114008430D
:101AD00059490870084600788007C00F00282AD0AE
:101AE000084600784007C00F00283BD10846007820
:101AF000C007C00F00281AD001204C4908700220EE
:101B000000F074FD00F0FFFC0090062100984843AF
:101B1000000100907D21C9010098884203D904206A
:101B20004749087002E00620454908701AE0022083
:101B30004349087016E0404800784007C00F00286D
:101B400010D13D480078C007C00F002803D0012005
:101B50003B49087006E000203949087002E0002087
:101B600038490870344800784007C00FB84258D050
:101B700035480078401CC0B233490870022853DD54
:101B8000002008702C48007804218843B900042202
:101B90001140084328490870084600784007C00FE4
:101BA00000282AD0084600788007C00F00283BD1C3
:101BB00008460078C007C00F00281AD001211B4832
:101BC0000170022000F012FD00F09DFC0090062143
:101BD00000984843000100907D21C9010098884287
:101BE00003D904201649087002E006201449087041
:101BF0001AE003201249087016E00F4800788007A9
:101C0000C00F002810D10C480078C007C00F002872
:101C100003D001200A49087006E000200849087036
:101C200002E0002008490870FEBD000010000020FE
:101C30008B020000B0280000180000201A000020CD
:101C4000190000201B0000201C00002010B50120FE
:101C500017490870002000F0D9FB002000F08EFC2E
:101C6000002000F0F7FA0020FFF790FB002000F0C2
:101C70004FFC002000F090FB002000F00BFC022045
:101C80000B490870002000F0C1FB002000F076FC3A
:101C9000002000F0DFFA0020FFF778FB002000F0C2
:101CA00037FC002000F078FB002000F0F3FB10BDB3
:101CB000100000207F48007880088000C01C7D490B
:101CC000087008460078802188437A4908700846E1
:101CD00040780C218843083076494870412088704C
:101CE0000846C078C009C0016430C8700846C07892
:101CF000802188436F49C87008460079C009C00137
:101D00006430087108460079802188436949087168
:101D10007D2048710846807908218843083065494C
:101D200088710846C07904218843001D6149C87143
:101D30000846007A0C2188430C305E490872084638
:101D4000407A082188435B4948720846807A3021EE
:101D500088431030574988720846807A402188436A
:101D60004030544988720846C07A80088000401C80
:101D7000C8720846C07A042188434E49C872084692
:101D8000C07A082188434B49C8720846C07A30217E
:101D9000884310304749C8720846C07A40218843BA
:101DA0004449C8720846C07A802188434149C872B4
:101DB000002008760846007B8008800008730846EB
:101DC000007B802188433B4908730846407B0C21F7
:101DD00088430C3037494873412136488173C07BB2
:101DE000C009C00164303349C8730846C07B8021F4
:101DF00088433049C8730846007CC009C00164307C
:101E000008740846007C802188432A4908747D2193
:101E100028484174807C082188430830254988740B
:101E20000846C07C04218843001D2249C874084626
:101E3000007D0C218843001D1E4908750846407D21
:101E4000082188431B4948750846807D3021884316
:101E50001030184988750846807D402188434030FD
:101E6000144988750846C07D80088000401CC875EC
:101E70000846C07D042188430E49C8750846C07DC8
:101E8000082188430B49C8750846C07D3021884326
:101E900010300849C8750846C07D4021884305496F
:101EA000C8750846C07D802188430249C875002056
:101EB000487670473000002010B5FFF7FBFE012088
:101EC0002549087000F0A2FA012000F057FB01201C
:101ED00000F08EF90A20FEF7BBFC02201E490870B4
:101EE000012000F093FA012000F048FB012000F0EF
:101EF0007FF96420FEF7ACFC012017490870FFF75A
:101F000045FA012000F004FB012000F045FA012011
:101F100000F0C0FA012000F005FA012000F02EF9CF
:101F2000012000F071FB02200B4908700120FFF72F
:101F30002DFA012000F0ECFA012000F02DFA01202A
:101F400000F0A8FA012000F0EDF9012000F016F9E8
:101F5000012000F059FB10BD1000002008B5FEF76D
:101F6000DDFDFFF7D5FA00BF7648806808210843F9
:101F7000744988600846806808210840009000BFC6
:101F800000BFFEF711FAFEF72DFA3220FEF760FCD3
:101F900001206D490870FEF79FFA02206A49087017
:101FA0000120FEF799FAFFF787FFCAE0674800793A
:101FB000002802D000206549087164484079002853
:101FC000F3D000206149487101205F490870FEF795
:101FD00007FC02205C490870FEF702FCFFF7D2FC08
:101FE000FFF7F6FAFFF732FE59480078C007C00F36
:101FF00000284FD056484068401C554948600A2880
:1020000048D9002048600846007840084000087021
:1020100001204D490870FEF7E3FB032000F0E6FACB
:1020200000F064FA0446A00024186408642C30D23E
:102030007620FEF751FA0090684600784108490082
:10204000491C00916846007802218843811C009158
:10205000684601787620FEF70BFB19204001FEF759
:10206000F7FB7620FEF738FA0090684600784108C2
:102070004900009168460078022188430090684634
:1020800001787620FEF7F4FA19204001FEF7E0FB14
:1020900000BF00BF2E4800788007C00F002850D036
:1020A0002B488068401C2A4988600A2849D90020AA
:1020B000886008460078022188432549087002207C
:1020C00021490870FEF78CFB032000F08FFA00F026
:1020D0000DFA0446A00024186408642C30D276203F
:1020E000FEF7FAF900906846007841084900491C5B
:1020F00000916846007802218843811C009168465F
:1021000001787620FEF7B4FA19204001FEF7A0FB13
:102110007620FEF7E1F90090684600784108490012
:102120000091684600780221884300906846017853
:102130007620FEF79DFA19204001FEF789FB00BFCB
:1021400000BF33E7000002401000002028000020FC
:102150004C00002008B57320FEF7BEF900906846D9
:1021600000788021884341180091684601787320E7
:10217000FEF77EFA6420FEF76BFB08BD1CB5044633
:1021800019480078012803D11848807A019002E0AC
:102190001648807D0190BD20FEF79EF90090002C2E
:1021A00009D1684600788006810F6846007980066C
:1021B000800F814216D0FEF713FB69460878302164
:1021C0008843694609798906890F0901302211403F
:1021D0000843009068460178BD20FEF749FA642064
:1021E000FEF736FB1CBD0000100000203000002070
:1021F0001CB5044615480078012803D1144880789E
:10220000019002E01248807B0190B420FEF764F94F
:102210000090002C09D1684600784106490E6846B6
:1022200000794006400E81420DD0FEF7D9FA68468B
:1022300000794106490E009168460178B420FEF706
:1022400017FA01201CBD0020FCE700001000002050
:10225000300000201CB5044616480078012803D140
:1022600015488078019002E01348807B0190B420EB
:10227000FEF732F90090002C09D16846007841063B
:10228000490E684600794006400E814210D0FEF7A4
:10229000A7FA684600794106490E00916846017820
:1022A000B420FEF7E5F9FFF755FF6420FEF7D0FAFA
:1022B0001CBD0000100000203000002008B50820E0
:1022C000FEF70AF90090694608780009072804D04B
:1022D000684600780009082801D1012008BD0020C7
:1022E000FCE708B50820FEF7F7F800906946087883
:1022F0000009062804D0684600780009082801D1A2
:10230000012008BD0020FCE708B50820FEF7E4F82E
:1023100000906946087800090B2801D1012008BD0A
:102320000020FCE71CB5044619480078012803D1B9
:102330001848C079019002E01648C07C0190B9208D
:10234000FEF7CAF80090002C09D1684600784007D3
:10235000C10F684600794007C00F814216D0FEF7D2
:102360003FFA694608780421884369460979490794
:10237000C90F890004221140084300906846017883
:10238000B920FEF775F96420FEF762FA1CBD000063
:1023900010000020300000201CB5044619480078C9
:1023A000012803D11848007A019002E01648007D08
:1023B0000190BA20FEF790F80090002C09D16846F1
:1023C00000780007810F684600790007800F81427E
:1023D00016D0FEF705FA694608780C21884369464D
:1023E00009790907890F89000C22114008430090E0
:1023F00068460178BA20FEF73BF96420FEF728FA18
:102400001CBD000010000020300000201CB5044658
:102410001E480078012803D11D480078019002E091
:102420001B48007B0190A620FEF756F80090002C78
:1024300009D1684600788107890F684600798007CE
:10244000800F814220D0002C0CD069460878802172
:102450008843694609790906C90FC90180221140DC
:102460000843009068460078810889006846007932
:102470008007800F0143009168460178A620FEF78F
:10248000F7F86420FEF7E4F91CBD000010000020FE
:10249000300000201CB5044612480078012803D102
:1024A00011484079019002E00F48407C0190B7202C
:1024B000FEF712F80090002C04D1684601780079EC
:1024C00081420ED0684601790091FEF789F968468D
:1024D0000178B720FEF7CCF86420FEF7B9F9FFF7D2
:1024E00039FE1CBD100000203000002070B53B20DC
:1024F000FDF7F2FF044624013C20FDF7EDFF054601
:102500006419204670BD10B53B20FDF7E5FF10BDF6
:102510001CB5044617480078012803D11648807A74
:10252000019002E01448807D0190BD20FDF7D4FFAA
:102530000090002C09D1684600784006C10F68461B
:1025400000794006C00F814213D0FEF749F9694671
:10255000087840218843694609794906C90F8901ED
:10256000402211400843009068460178BD20FEF7E4
:102570007FF81CBD10000020300000201CB5044670
:1025800018480078012803D117484078019002E0EC
:102590001548407B0190AB20FDF79EFF0090002C7A
:1025A00009D1684600780007810F68460079000766
:1025B000800F814214D0694608780C21884369460F
:1025C00009790907890F89000C22114008430090FE
:1025D00068460178AB20FEF74BF86420FEF738F927
:1025E0001CBD0000100000203000002038B504465B
:1025F0003A20FDF771FF0090E1B200916846017842
:102600003A20FEF735F838BD1CB504461948007865
:10261000012803D11848407A019002E01648407D15
:102620000190BC20FDF758FF0090002C09D16846AE
:1026300000780007C10F684600790007C00F81428B
:1026400016D0FEF7CDF86946087808218843694618
:1026500009790907C90FC9000822114008430090F1
:1026600068460178BC20FEF703F86420FEF7F0F816
:102670001CBD000010000020300000209C2600003F
:10268000000000203000000004010000CC26000003
:1026900030000020880400002001000000093D00F7
:1026A0000000000004000000010000000000000025
:1026B000000000000000000000000000000000001A
:0C26C0000000000000000000000000000E
:04000005000000C136
:00000001FF
